000FARMA LOGISTICA E ARMAZENS GERAIS  MEPHA                              1108041258CON110812580                                                                                                                                                                                                                                                                                                                                                                                                                                                                                                                                                                                                         
320CONHE110812581                                                                                                                                                                                                                                                                                                                                                                                                                                                                                                                                                                                                                                                                                       
32104019475000180FARMA LOGISTICA E ARMAZENS GERAIS                                                                                                                                                                                                                                                                                                                                                                                                                                                                                                                                                                                                                                                      
322BARUERI   U    00000031032601072004C000002000000000000783300000000000000000000000000000000000000000000000000000000000078330000000000000000000000000000000000000000000000000000000000000000000000000001   040194750001807259379100038300100003102   00000000   00000000   00000000   00000000   00000000   00000000   00000000   00000000   00000000   00000000   00000000   00000000   00000000   00000000   00000000   00000000   00000000   00000000   00000000   00000000   00000000   00000000   00000000   00000000   00000000   00000000   00000000   00000000   00000000   00000000   00000000   00000000   00000000   00000000   00000000   00000000   00000000   00000000   00000000IN5353  
322BARUERI   U    00000031032701072004C000000000000000000397700000000000000000000000000000000000000000000000000000000000039770000000000000000000000000000000000000000000000000000000000000000000000000001   040194750001807259379100038300100003103   00000000   00000000   00000000   00000000   00000000   00000000   00000000   00000000   00000000   00000000   00000000   00000000   00000000   00000000   00000000   00000000   00000000   00000000   00000000   00000000   00000000   00000000   00000000   00000000   00000000   00000000   00000000   00000000   00000000   00000000   00000000   00000000   00000000   00000000   00000000   00000000   00000000   00000000   00000000IN5353  
322BARUERI   U    00000031032801072004C000000600000000000350000000000000000000000000000000000000000000000000000000000000035000000000000000000000000000000000000000000000000000000000000000000000000000001   040194750001807259379100038300100003106   00000000   00000000   00000000   00000000   00000000   00000000   00000000   00000000   00000000   00000000   00000000   00000000   00000000   00000000   00000000   00000000   00000000   00000000   00000000   00000000   00000000   00000000   00000000   00000000   00000000   00000000   00000000   00000000   00000000   00000000   00000000   00000000   00000000   00000000   00000000   00000000   00000000   00000000   00000000IN5353  
322BARUERI   U    00000031032901072004C000000000000000000350000000000000000000000000000000000000000000000000000000000000035000000000000000000000000000000000000000000000000000000000000000000000000000001   040194750001807259379100038300100003107   00000000   00000000   00000000   00000000   00000000   00000000   00000000   00000000   00000000   00000000   00000000   00000000   00000000   00000000   00000000   00000000   00000000   00000000   00000000   00000000   00000000   00000000   00000000   00000000   00000000   00000000   00000000   00000000   00000000   00000000   00000000   00000000   00000000   00000000   00000000   00000000   00000000   00000000   00000000IN5353  
322BARUERI   U    00000031033001072004C000000300000000000397700000000000000000000000000000000000000000000000000000000000039770000000000000000000000000000000000000000000000000000000000000000000000000001   040194750001807259379100038300100003123   00000000   00000000   00000000   00000000   00000000   00000000   00000000   00000000   00000000   00000000   00000000   00000000   00000000   00000000   00000000   00000000   00000000   00000000   00000000   00000000   00000000   00000000   00000000   00000000   00000000   00000000   00000000   00000000   00000000   00000000   00000000   00000000   00000000   00000000   00000000   00000000   00000000   00000000   00000000IN5353  
322BARUERI   U    00000031033101072004C000000000000000000397700000000000000000000000000000000000000000000000000000000000039770000000000000000000000000000000000000000000000000000000000000000000000000001   040194750001807259379100038300100003124   00000000   00000000   00000000   00000000   00000000   00000000   00000000   00000000   00000000   00000000   00000000   00000000   00000000   00000000   00000000   00000000   00000000   00000000   00000000   00000000   00000000   00000000   00000000   00000000   00000000   00000000   00000000   00000000   00000000   00000000   00000000   00000000   00000000   00000000   00000000   00000000   00000000   00000000   00000000IN5353  
322BARUERI   U    00000031033201072004C000002000000000002678900000000000000000000000000000000000000000000000000000000000267890000000000000000000000000000000000000000000000000000000000000000000000000001   040194750001807259379100038300100003125   00000000   00000000   00000000   00000000   00000000   00000000   00000000   00000000   00000000   00000000   00000000   00000000   00000000   00000000   00000000   00000000   00000000   00000000   00000000   00000000   00000000   00000000   00000000   00000000   00000000   00000000   00000000   00000000   00000000   00000000   00000000   00000000   00000000   00000000   00000000   00000000   00000000   00000000   00000000IN5353  
322BARUERI   U    00000031033301072004C000000000000000000449700000000000000000000000000000000000000000000000000000000000044970000000000000000000000000000000000000000000000000000000000000000000000000001   040194750001807259379100038300100003126   00000000   00000000   00000000   00000000   00000000   00000000   00000000   00000000   00000000   00000000   00000000   00000000   00000000   00000000   00000000   00000000   00000000   00000000   00000000   00000000   00000000   00000000   00000000   00000000   00000000   00000000   00000000   00000000   00000000   00000000   00000000   00000000   00000000   00000000   00000000   00000000   00000000   00000000   00000000IN5353  
322BARUERI   U    00000031033401072004C000000300000000000350000000000000000000000000000000000000000000000000000000000000035000000000000000000000000000000000000000000000000000000000000000000000000000001   040194750001807259379100038300100003129   00000000   00000000   00000000   00000000   00000000   00000000   00000000   00000000   00000000   00000000   00000000   00000000   00000000   00000000   00000000   00000000   00000000   00000000   00000000   00000000   00000000   00000000   00000000   00000000   00000000   00000000   00000000   00000000   00000000   00000000   00000000   00000000   00000000   00000000   00000000   00000000   00000000   00000000   00000000IN5353  
322BARUERI   U    00000031033601072004C000000000000000000350000000000000000000000000000000000000000000000000000000000000035000000000000000000000000000000000000000000000000000000000000000000000000000001   040194750001807259379100038300100003132   00000000   00000000   00000000   00000000   00000000   00000000   00000000   00000000   00000000   00000000   00000000   00000000   00000000   00000000   00000000   00000000   00000000   00000000   00000000   00000000   00000000   00000000   00000000   00000000   00000000   00000000   00000000   00000000   00000000   00000000   00000000   00000000   00000000   00000000   00000000   00000000   00000000   00000000   00000000IN5353  
322BARUERI   U    00000031037901072004C000000600000000000350000000000000000000000000000000000000000000000000000000000000035000000000000000000000000000000000000000000000000000000000000000000000000000001   040194750001807259379100038300100003131   00000000   00000000   00000000   00000000   00000000   00000000   00000000   00000000   00000000   00000000   00000000   00000000   00000000   00000000   00000000   00000000   00000000   00000000   00000000   00000000   00000000   00000000   00000000   00000000   00000000   00000000   00000000   00000000   00000000   00000000   00000000   00000000   00000000   00000000   00000000   00000000   00000000   00000000   00000000IN5353  
322BARUERI   U    00000031038001072004C000000100000000000350000000000000000000000000000000000000000000000000000000000000035000000000000000000000000000000000000000000000000000000000000000000000000000001   040194750001807259379100038300100003130   00000000   00000000   00000000   00000000   00000000   00000000   00000000   00000000   00000000   00000000   00000000   00000000   00000000   00000000   00000000   00000000   00000000   00000000   00000000   00000000   00000000   00000000   00000000   00000000   00000000   00000000   00000000   00000000   00000000   00000000   00000000   00000000   00000000   00000000   00000000   00000000   00000000   00000000   00000000IN5353  
322BARUERI   U    00000031038401072004C000000800000000000350000000000000000000000000000000000000000000000000000000000000035000000000000000000000000000000000000000000000000000000000000000000000000000001   040194750001807259379100038300100003078   00000000   00000000   00000000   00000000   00000000   00000000   00000000   00000000   00000000   00000000   00000000   00000000   00000000   00000000   00000000   00000000   00000000   00000000   00000000   00000000   00000000   00000000   00000000   00000000   00000000   00000000   00000000   00000000   00000000   00000000   00000000   00000000   00000000   00000000   00000000   00000000   00000000   00000000   00000000IN5353  
322BARUERI   U    00000031038501072004C000000000000000000350000000000000000000000000000000000000000000000000000000000000035000000000000000000000000000000000000000000000000000000000000000000000000000001   040194750001807259379100038300100003079   00000000   00000000   00000000   00000000   00000000   00000000   00000000   00000000   00000000   00000000   00000000   00000000   00000000   00000000   00000000   00000000   00000000   00000000   00000000   00000000   00000000   00000000   00000000   00000000   00000000   00000000   00000000   00000000   00000000   00000000   00000000   00000000   00000000   00000000   00000000   00000000   00000000   00000000   00000000IN5353  
322BARUERI   U    00000031038601072004C000000400000000000350000000000000000000000000000000000000000000000000000000000000035000000000000000000000000000000000000000000000000000000000000000000000000000001   040194750001807259379100038300100003098   00000000   00000000   00000000   00000000   00000000   00000000   00000000   00000000   00000000   00000000   00000000   00000000   00000000   00000000   00000000   00000000   00000000   00000000   00000000   00000000   00000000   00000000   00000000   00000000   00000000   00000000   00000000   00000000   00000000   00000000   00000000   00000000   00000000   00000000   00000000   00000000   00000000   00000000   00000000IN5353  
322BARUERI   U    00000031038701072004C000000000000000000350000000000000000000000000000000000000000000000000000000000000035000000000000000000000000000000000000000000000000000000000000000000000000000001   040194750001807259379100038300100003099   00000000   00000000   00000000   00000000   00000000   00000000   00000000   00000000   00000000   00000000   00000000   00000000   00000000   00000000   00000000   00000000   00000000   00000000   00000000   00000000   00000000   00000000   00000000   00000000   00000000   00000000   00000000   00000000   00000000   00000000   00000000   00000000   00000000   00000000   00000000   00000000   00000000   00000000   00000000IN5353  
322BARUERI   U    00000031038801072004C000003000000000004305400000000000000000000000000000000000000000000000000000000000430540000000000000000000000000000000000000000000000000000000000000000000000000001   040194750001807259379100038300100003127   00000000   00000000   00000000   00000000   00000000   00000000   00000000   00000000   00000000   00000000   00000000   00000000   00000000   00000000   00000000   00000000   00000000   00000000   00000000   00000000   00000000   00000000   00000000   00000000   00000000   00000000   00000000   00000000   00000000   00000000   00000000   00000000   00000000   00000000   00000000   00000000   00000000   00000000   00000000IN5353  
322BARUERI   U    00000031038901072004C000000000000000000425000000000000000000000000000000000000000000000000000000000000042500000000000000000000000000000000000000000000000000000000000000000000000000001   040194750001807259379100038300100003128   00000000   00000000   00000000   00000000   00000000   00000000   00000000   00000000   00000000   00000000   00000000   00000000   00000000   00000000   00000000   00000000   00000000   00000000   00000000   00000000   00000000   00000000   00000000   00000000   00000000   00000000   00000000   00000000   00000000   00000000   00000000   00000000   00000000   00000000   00000000   00000000   00000000   00000000   00000000IN5353  
322BARUERI   U    00000031046101072004C000000600000000000397700000000000000000000000000000000000000000000000000000000000039770000000000000000000000000000000000000000000000000000000000000000000000000001   04019475000180725937910003830010000307500100003076   00000000   00000000   00000000   00000000   00000000   00000000   00000000   00000000   00000000   00000000   00000000   00000000   00000000   00000000   00000000   00000000   00000000   00000000   00000000   00000000   00000000   00000000   00000000   00000000   00000000   00000000   00000000   00000000   00000000   00000000   00000000   00000000   00000000   00000000   00000000   00000000   00000000   00000000IN5353  
322BARUERI   U    00000031074201072004C000000300000000000397700000000000000000000000000000000000000000000000000000000000039770000000000000000000000000000000000000000000000000000000000000000000000000001   040194750001807259379100038300100002994   00000000   00000000   00000000   00000000   00000000   00000000   00000000   00000000   00000000   00000000   00000000   00000000   00000000   00000000   00000000   00000000   00000000   00000000   00000000   00000000   00000000   00000000   00000000   00000000   00000000   00000000   00000000   00000000   00000000   00000000   00000000   00000000   00000000   00000000   00000000   00000000   00000000   00000000   00000000IN6353  
322BARUERI   U    00000031074301072004C000000000000000000397700000000000000000000000000000000000000000000000000000000000039770000000000000000000000000000000000000000000000000000000000000000000000000001   040194750001807259379100038300100002995   00000000   00000000   00000000   00000000   00000000   00000000   00000000   00000000   00000000   00000000   00000000   00000000   00000000   00000000   00000000   00000000   00000000   00000000   00000000   00000000   00000000   00000000   00000000   00000000   00000000   00000000   00000000   00000000   00000000   00000000   00000000   00000000   00000000   00000000   00000000   00000000   00000000   00000000   00000000IN6353  
322BARUERI   U    00000031074401072004C000006000000000002939400000000000000000000000000000000000000000000000000000000000293940000000000000000000000000000000000000000000000000000000000000000000000000001   040194750001807259379100038300100003008   00000000   00000000   00000000   00000000   00000000   00000000   00000000   00000000   00000000   00000000   00000000   00000000   00000000   00000000   00000000   00000000   00000000   00000000   00000000   00000000   00000000   00000000   00000000   00000000   00000000   00000000   00000000   00000000   00000000   00000000   00000000   00000000   00000000   00000000   00000000   00000000   00000000   00000000   00000000IN6353  
322BARUERI   U    00000031074501072004C000000300000000000397700000000000000000000000000000000000000000000000000000000000039770000000000000000000000000000000000000000000000000000000000000000000000000001   040194750001807259379100038300100003009   00000000   00000000   00000000   00000000   00000000   00000000   00000000   00000000   00000000   00000000   00000000   00000000   00000000   00000000   00000000   00000000   00000000   00000000   00000000   00000000   00000000   00000000   00000000   00000000   00000000   00000000   00000000   00000000   00000000   00000000   00000000   00000000   00000000   00000000   00000000   00000000   00000000   00000000   00000000IN6353  
322BARUERI   U    00000031074601072004C000000000000000000397700000000000000000000000000000000000000000000000000000000000039770000000000000000000000000000000000000000000000000000000000000000000000000001   040194750001807259379100038300100003010   00000000   00000000   00000000   00000000   00000000   00000000   00000000   00000000   00000000   00000000   00000000   00000000   00000000   00000000   00000000   00000000   00000000   00000000   00000000   00000000   00000000   00000000   00000000   00000000   00000000   00000000   00000000   00000000   00000000   00000000   00000000   00000000   00000000   00000000   00000000   00000000   00000000   00000000   00000000IN6353  
322BARUERI   U    00000031074701072004C000000900000000000397700000000000000000000000000000000000000000000000000000000000039770000000000000000000000000000000000000000000000000000000000000000000000000001   040194750001807259379100038300100003014   00000000   00000000   00000000   00000000   00000000   00000000   00000000   00000000   00000000   00000000   00000000   00000000   00000000   00000000   00000000   00000000   00000000   00000000   00000000   00000000   00000000   00000000   00000000   00000000   00000000   00000000   00000000   00000000   00000000   00000000   00000000   00000000   00000000   00000000   00000000   00000000   00000000   00000000   00000000IN6353  
322BARUERI   U    00000031074801072004C000000000000000000397700000000000000000000000000000000000000000000000000000000000039770000000000000000000000000000000000000000000000000000000000000000000000000001   040194750001807259379100038300100003015   00000000   00000000   00000000   00000000   00000000   00000000   00000000   00000000   00000000   00000000   00000000   00000000   00000000   00000000   00000000   00000000   00000000   00000000   00000000   00000000   00000000   00000000   00000000   00000000   00000000   00000000   00000000   00000000   00000000   00000000   00000000   00000000   00000000   00000000   00000000   00000000   00000000   00000000   00000000IN6353  
322BARUERI   U    00000031074901072004C000000000000000000397700000000000000000000000000000000000000000000000000000000000039770000000000000000000000000000000000000000000000000000000000000000000000000001   040194750001807259379100038300100003016   00000000   00000000   00000000   00000000   00000000   00000000   00000000   00000000   00000000   00000000   00000000   00000000   00000000   00000000   00000000   00000000   00000000   00000000   00000000   00000000   00000000   00000000   00000000   00000000   00000000   00000000   00000000   00000000   00000000   00000000   00000000   00000000   00000000   00000000   00000000   00000000   00000000   00000000   00000000IN6353  
322BARUERI   U    00000031075001072004C000000400000000000376300000000000000000000000000000000000000000000000000000000000037630000000000000000000000000000000000000000000000000000000000000000000000000001   040194750001807259379100038300100003020   00000000   00000000   00000000   00000000   00000000   00000000   00000000   00000000   00000000   00000000   00000000   00000000   00000000   00000000   00000000   00000000   00000000   00000000   00000000   00000000   00000000   00000000   00000000   00000000   00000000   00000000   00000000   00000000   00000000   00000000   00000000   00000000   00000000   00000000   00000000   00000000   00000000   00000000   00000000IN6353  
322BARUERI   U    00000031075101072004C000000600000000000397700000000000000000000000000000000000000000000000000000000000039770000000000000000000000000000000000000000000000000000000000000000000000000001   040194750001807259379100038300100003024   00000000   00000000   00000000   00000000   00000000   00000000   00000000   00000000   00000000   00000000   00000000   00000000   00000000   00000000   00000000   00000000   00000000   00000000   00000000   00000000   00000000   00000000   00000000   00000000   00000000   00000000   00000000   00000000   00000000   00000000   00000000   00000000   00000000   00000000   00000000   00000000   00000000   00000000   00000000IN6353  
322BARUERI   U    00000031075201072004C000000000000000000397700000000000000000000000000000000000000000000000000000000000039770000000000000000000000000000000000000000000000000000000000000000000000000001   040194750001807259379100038300100003025   00000000   00000000   00000000   00000000   00000000   00000000   00000000   00000000   00000000   00000000   00000000   00000000   00000000   00000000   00000000   00000000   00000000   00000000   00000000   00000000   00000000   00000000   00000000   00000000   00000000   00000000   00000000   00000000   00000000   00000000   00000000   00000000   00000000   00000000   00000000   00000000   00000000   00000000   00000000IN6353  
322BARUERI   U    00000031075301072004C000000700000000000680500000000000000000000000000000000000000000000000000000000000068050000000000000000000000000000000000000000000000000000000000000000000000000001   040194750001807259379100038300100003026   00000000   00000000   00000000   00000000   00000000   00000000   00000000   00000000   00000000   00000000   00000000   00000000   00000000   00000000   00000000   00000000   00000000   00000000   00000000   00000000   00000000   00000000   00000000   00000000   00000000   00000000   00000000   00000000   00000000   00000000   00000000   00000000   00000000   00000000   00000000   00000000   00000000   00000000   00000000IN6353  
322BARUERI   U    00000031075401072004C000000000000000000397700000000000000000000000000000000000000000000000000000000000039770000000000000000000000000000000000000000000000000000000000000000000000000001   040194750001807259379100038300100003027   00000000   00000000   00000000   00000000   00000000   00000000   00000000   00000000   00000000   00000000   00000000   00000000   00000000   00000000   00000000   00000000   00000000   00000000   00000000   00000000   00000000   00000000   00000000   00000000   00000000   00000000   00000000   00000000   00000000   00000000   00000000   00000000   00000000   00000000   00000000   00000000   00000000   00000000   00000000IN6353  
322BARUERI   U    00000031075501072004C000001500000000000721000000000000000000000000000000000000000000000000000000000000072100000000000000000000000000000000000000000000000000000000000000000000000000001   040194750001807259379100038300100003032   00000000   00000000   00000000   00000000   00000000   00000000   00000000   00000000   00000000   00000000   00000000   00000000   00000000   00000000   00000000   00000000   00000000   00000000   00000000   00000000   00000000   00000000   00000000   00000000   00000000   00000000   00000000   00000000   00000000   00000000   00000000   00000000   00000000   00000000   00000000   00000000   00000000   00000000   00000000IN6353  
322BARUERI   U    00000031075601072004C000000000000000000397700000000000000000000000000000000000000000000000000000000000039770000000000000000000000000000000000000000000000000000000000000000000000000001   040194750001807259379100038300100003033   00000000   00000000   00000000   00000000   00000000   00000000   00000000   00000000   00000000   00000000   00000000   00000000   00000000   00000000   00000000   00000000   00000000   00000000   00000000   00000000   00000000   00000000   00000000   00000000   00000000   00000000   00000000   00000000   00000000   00000000   00000000   00000000   00000000   00000000   00000000   00000000   00000000   00000000   00000000IN6353  
322BARUERI   U    00000031075701072004C000000000000000000397700000000000000000000000000000000000000000000000000000000000039770000000000000000000000000000000000000000000000000000000000000000000000000001   040194750001807259379100038300100003034   00000000   00000000   00000000   00000000   00000000   00000000   00000000   00000000   00000000   00000000   00000000   00000000   00000000   00000000   00000000   00000000   00000000   00000000   00000000   00000000   00000000   00000000   00000000   00000000   00000000   00000000   00000000   00000000   00000000   00000000   00000000   00000000   00000000   00000000   00000000   00000000   00000000   00000000   00000000IN6353  
322BARUERI   U    00000031075801072004C000000600000000000397700000000000000000000000000000000000000000000000000000000000039770000000000000000000000000000000000000000000000000000000000000000000000000001   040194750001807259379100038300100003035   00000000   00000000   00000000   00000000   00000000   00000000   00000000   00000000   00000000   00000000   00000000   00000000   00000000   00000000   00000000   00000000   00000000   00000000   00000000   00000000   00000000   00000000   00000000   00000000   00000000   00000000   00000000   00000000   00000000   00000000   00000000   00000000   00000000   00000000   00000000   00000000   00000000   00000000   00000000IN6353  
322BARUERI   U    00000031075901072004C000000000000000000397700000000000000000000000000000000000000000000000000000000000039770000000000000000000000000000000000000000000000000000000000000000000000000001   040194750001807259379100038300100003036   00000000   00000000   00000000   00000000   00000000   00000000   00000000   00000000   00000000   00000000   00000000   00000000   00000000   00000000   00000000   00000000   00000000   00000000   00000000   00000000   00000000   00000000   00000000   00000000   00000000   00000000   00000000   00000000   00000000   00000000   00000000   00000000   00000000   00000000   00000000   00000000   00000000   00000000   00000000IN6353  
322BARUERI   U    00000031076001072004C000000000000000000397700000000000000000000000000000000000000000000000000000000000039770000000000000000000000000000000000000000000000000000000000000000000000000001   040194750001807259379100038300100003037   00000000   00000000   00000000   00000000   00000000   00000000   00000000   00000000   00000000   00000000   00000000   00000000   00000000   00000000   00000000   00000000   00000000   00000000   00000000   00000000   00000000   00000000   00000000   00000000   00000000   00000000   00000000   00000000   00000000   00000000   00000000   00000000   00000000   00000000   00000000   00000000   00000000   00000000   00000000IN6353  
322BARUERI   U    00000031076101072004C000000300000000000397700000000000000000000000000000000000000000000000000000000000039770000000000000000000000000000000000000000000000000000000000000000000000000001   040194750001807259379100038300100003038   00000000   00000000   00000000   00000000   00000000   00000000   00000000   00000000   00000000   00000000   00000000   00000000   00000000   00000000   00000000   00000000   00000000   00000000   00000000   00000000   00000000   00000000   00000000   00000000   00000000   00000000   00000000   00000000   00000000   00000000   00000000   00000000   00000000   00000000   00000000   00000000   00000000   00000000   00000000IN5353  
322BARUERI   U    00000031076201072004C000000600000000000376300000000000000000000000000000000000000000000000000000000000037630000000000000000000000000000000000000000000000000000000000000000000000000001   040194750001807259379100038300100003039   00000000   00000000   00000000   00000000   00000000   00000000   00000000   00000000   00000000   00000000   00000000   00000000   00000000   00000000   00000000   00000000   00000000   00000000   00000000   00000000   00000000   00000000   00000000   00000000   00000000   00000000   00000000   00000000   00000000   00000000   00000000   00000000   00000000   00000000   00000000   00000000   00000000   00000000   00000000IN6353  
322BARUERI   U    00000031076301072004C000000000000000000376300000000000000000000000000000000000000000000000000000000000037630000000000000000000000000000000000000000000000000000000000000000000000000001   040194750001807259379100038300100003040   00000000   00000000   00000000   00000000   00000000   00000000   00000000   00000000   00000000   00000000   00000000   00000000   00000000   00000000   00000000   00000000   00000000   00000000   00000000   00000000   00000000   00000000   00000000   00000000   00000000   00000000   00000000   00000000   00000000   00000000   00000000   00000000   00000000   00000000   00000000   00000000   00000000   00000000   00000000IN6353  
322BARUERI   U    00000031076401072004C000000000000000000376300000000000000000000000000000000000000000000000000000000000037630000000000000000000000000000000000000000000000000000000000000000000000000001   040194750001807259379100038300100003041   00000000   00000000   00000000   00000000   00000000   00000000   00000000   00000000   00000000   00000000   00000000   00000000   00000000   00000000   00000000   00000000   00000000   00000000   00000000   00000000   00000000   00000000   00000000   00000000   00000000   00000000   00000000   00000000   00000000   00000000   00000000   00000000   00000000   00000000   00000000   00000000   00000000   00000000   00000000IN6353  
322BARUERI   U    00000031076501072004C000000300000000000566800000000000000000000000000000000000000000000000000000000000056680000000000000000000000000000000000000000000000000000000000000000000000000001   040194750001807259379100038300100003044   00000000   00000000   00000000   00000000   00000000   00000000   00000000   00000000   00000000   00000000   00000000   00000000   00000000   00000000   00000000   00000000   00000000   00000000   00000000   00000000   00000000   00000000   00000000   00000000   00000000   00000000   00000000   00000000   00000000   00000000   00000000   00000000   00000000   00000000   00000000   00000000   00000000   00000000   00000000IN5353  
322BARUERI   U    00000031076601072004C000000500000000000397700000000000000000000000000000000000000000000000000000000000039770000000000000000000000000000000000000000000000000000000000000000000000000001   040194750001807259379100038300100003049   00000000   00000000   00000000   00000000   00000000   00000000   00000000   00000000   00000000   00000000   00000000   00000000   00000000   00000000   00000000   00000000   00000000   00000000   00000000   00000000   00000000   00000000   00000000   00000000   00000000   00000000   00000000   00000000   00000000   00000000   00000000   00000000   00000000   00000000   00000000   00000000   00000000   00000000   00000000IN6353  
322BARUERI   U    00000031076701072004C000000000000000000397700000000000000000000000000000000000000000000000000000000000039770000000000000000000000000000000000000000000000000000000000000000000000000001   040194750001807259379100038300100003050   00000000   00000000   00000000   00000000   00000000   00000000   00000000   00000000   00000000   00000000   00000000   00000000   00000000   00000000   00000000   00000000   00000000   00000000   00000000   00000000   00000000   00000000   00000000   00000000   00000000   00000000   00000000   00000000   00000000   00000000   00000000   00000000   00000000   00000000   00000000   00000000   00000000   00000000   00000000IN6353  
322BARUERI   U    00000031076801072004C000000000000000000397700000000000000000000000000000000000000000000000000000000000039770000000000000000000000000000000000000000000000000000000000000000000000000001   040194750001807259379100038300100003057   00000000   00000000   00000000   00000000   00000000   00000000   00000000   00000000   00000000   00000000   00000000   00000000   00000000   00000000   00000000   00000000   00000000   00000000   00000000   00000000   00000000   00000000   00000000   00000000   00000000   00000000   00000000   00000000   00000000   00000000   00000000   00000000   00000000   00000000   00000000   00000000   00000000   00000000   00000000IN6353  
322BARUERI   U    00000031076901072004C000009000000000008805100000000000000000000000000000000000000000000000000000000000880510000000000000000000000000000000000000000000000000000000000000000000000000001   040194750001807259379100038300100003058   00000000   00000000   00000000   00000000   00000000   00000000   00000000   00000000   00000000   00000000   00000000   00000000   00000000   00000000   00000000   00000000   00000000   00000000   00000000   00000000   00000000   00000000   00000000   00000000   00000000   00000000   00000000   00000000   00000000   00000000   00000000   00000000   00000000   00000000   00000000   00000000   00000000   00000000   00000000IN6353  
322BARUERI   U    00000031077001072004C000001500000000001955500000000000000000000000000000000000000000000000000000000000195550000000000000000000000000000000000000000000000000000000000000000000000000001   040194750001807259379100038300100003059   00000000   00000000   00000000   00000000   00000000   00000000   00000000   00000000   00000000   00000000   00000000   00000000   00000000   00000000   00000000   00000000   00000000   00000000   00000000   00000000   00000000   00000000   00000000   00000000   00000000   00000000   00000000   00000000   00000000   00000000   00000000   00000000   00000000   00000000   00000000   00000000   00000000   00000000   00000000IN6353  
322BARUERI   U    00000031077101072004C000000300000000000376300000000000000000000000000000000000000000000000000000000000037630000000000000000000000000000000000000000000000000000000000000000000000000001   040194750001807259379100038300100003060   00000000   00000000   00000000   00000000   00000000   00000000   00000000   00000000   00000000   00000000   00000000   00000000   00000000   00000000   00000000   00000000   00000000   00000000   00000000   00000000   00000000   00000000   00000000   00000000   00000000   00000000   00000000   00000000   00000000   00000000   00000000   00000000   00000000   00000000   00000000   00000000   00000000   00000000   00000000IN6353  
322BARUERI   U    00000031077201072004C000000000000000000376300000000000000000000000000000000000000000000000000000000000037630000000000000000000000000000000000000000000000000000000000000000000000000001   040194750001807259379100038300100003061   00000000   00000000   00000000   00000000   00000000   00000000   00000000   00000000   00000000   00000000   00000000   00000000   00000000   00000000   00000000   00000000   00000000   00000000   00000000   00000000   00000000   00000000   00000000   00000000   00000000   00000000   00000000   00000000   00000000   00000000   00000000   00000000   00000000   00000000   00000000   00000000   00000000   00000000   00000000IN6353  
322BARUERI   U    00000031077301072004C000000900000000000397700000000000000000000000000000000000000000000000000000000000039770000000000000000000000000000000000000000000000000000000000000000000000000001   040194750001807259379100038300100003062   00000000   00000000   00000000   00000000   00000000   00000000   00000000   00000000   00000000   00000000   00000000   00000000   00000000   00000000   00000000   00000000   00000000   00000000   00000000   00000000   00000000   00000000   00000000   00000000   00000000   00000000   00000000   00000000   00000000   00000000   00000000   00000000   00000000   00000000   00000000   00000000   00000000   00000000   00000000IN6353  
322BARUERI   U    00000031077401072004C000000000000000000397700000000000000000000000000000000000000000000000000000000000039770000000000000000000000000000000000000000000000000000000000000000000000000001   040194750001807259379100038300100003063   00000000   00000000   00000000   00000000   00000000   00000000   00000000   00000000   00000000   00000000   00000000   00000000   00000000   00000000   00000000   00000000   00000000   00000000   00000000   00000000   00000000   00000000   00000000   00000000   00000000   00000000   00000000   00000000   00000000   00000000   00000000   00000000   00000000   00000000   00000000   00000000   00000000   00000000   00000000IN6353  
322BARUERI   U    00000031077501072004C000000900000000000397700000000000000000000000000000000000000000000000000000000000039770000000000000000000000000000000000000000000000000000000000000000000000000001   040194750001807259379100038300100003064   00000000   00000000   00000000   00000000   00000000   00000000   00000000   00000000   00000000   00000000   00000000   00000000   00000000   00000000   00000000   00000000   00000000   00000000   00000000   00000000   00000000   00000000   00000000   00000000   00000000   00000000   00000000   00000000   00000000   00000000   00000000   00000000   00000000   00000000   00000000   00000000   00000000   00000000   00000000IN6353  
322BARUERI   U    00000031077601072004C000000000000000000397700000000000000000000000000000000000000000000000000000000000039770000000000000000000000000000000000000000000000000000000000000000000000000001   040194750001807259379100038300100003065   00000000   00000000   00000000   00000000   00000000   00000000   00000000   00000000   00000000   00000000   00000000   00000000   00000000   00000000   00000000   00000000   00000000   00000000   00000000   00000000   00000000   00000000   00000000   00000000   00000000   00000000   00000000   00000000   00000000   00000000   00000000   00000000   00000000   00000000   00000000   00000000   00000000   00000000   00000000IN6353  
322BARUERI   U    00000031077701072004C000000000000000000397700000000000000000000000000000000000000000000000000000000000039770000000000000000000000000000000000000000000000000000000000000000000000000001   040194750001807259379100038300100003066   00000000   00000000   00000000   00000000   00000000   00000000   00000000   00000000   00000000   00000000   00000000   00000000   00000000   00000000   00000000   00000000   00000000   00000000   00000000   00000000   00000000   00000000   00000000   00000000   00000000   00000000   00000000   00000000   00000000   00000000   00000000   00000000   00000000   00000000   00000000   00000000   00000000   00000000   00000000IN6353  
322BARUERI   U    00000031077801072004C000000200000000000397700000000000000000000000000000000000000000000000000000000000039770000000000000000000000000000000000000000000000000000000000000000000000000001   040194750001807259379100038300100003067   00000000   00000000   00000000   00000000   00000000   00000000   00000000   00000000   00000000   00000000   00000000   00000000   00000000   00000000   00000000   00000000   00000000   00000000   00000000   00000000   00000000   00000000   00000000   00000000   00000000   00000000   00000000   00000000   00000000   00000000   00000000   00000000   00000000   00000000   00000000   00000000   00000000   00000000   00000000IN6353  
322BARUERI   U    00000031077901072004C000000200000000000397700000000000000000000000000000000000000000000000000000000000039770000000000000000000000000000000000000000000000000000000000000000000000000001   040194750001807259379100038300100003068   00000000   00000000   00000000   00000000   00000000   00000000   00000000   00000000   00000000   00000000   00000000   00000000   00000000   00000000   00000000   00000000   00000000   00000000   00000000   00000000   00000000   00000000   00000000   00000000   00000000   00000000   00000000   00000000   00000000   00000000   00000000   00000000   00000000   00000000   00000000   00000000   00000000   00000000   00000000IN6353  
322BARUERI   U    00000031078001072004C000000200000000000397700000000000000000000000000000000000000000000000000000000000039770000000000000000000000000000000000000000000000000000000000000000000000000001   040194750001807259379100038300100003069   00000000   00000000   00000000   00000000   00000000   00000000   00000000   00000000   00000000   00000000   00000000   00000000   00000000   00000000   00000000   00000000   00000000   00000000   00000000   00000000   00000000   00000000   00000000   00000000   00000000   00000000   00000000   00000000   00000000   00000000   00000000   00000000   00000000   00000000   00000000   00000000   00000000   00000000   00000000IN6353  
322BARUERI   U    00000031078101072004C000000500000000000397700000000000000000000000000000000000000000000000000000000000039770000000000000000000000000000000000000000000000000000000000000000000000000001   040194750001807259379100038300100003070   00000000   00000000   00000000   00000000   00000000   00000000   00000000   00000000   00000000   00000000   00000000   00000000   00000000   00000000   00000000   00000000   00000000   00000000   00000000   00000000   00000000   00000000   00000000   00000000   00000000   00000000   00000000   00000000   00000000   00000000   00000000   00000000   00000000   00000000   00000000   00000000   00000000   00000000   00000000IN6353  
322BARUERI   U    00000031078201072004C000000000000000000397700000000000000000000000000000000000000000000000000000000000039770000000000000000000000000000000000000000000000000000000000000000000000000001   040194750001807259379100038300100003071   00000000   00000000   00000000   00000000   00000000   00000000   00000000   00000000   00000000   00000000   00000000   00000000   00000000   00000000   00000000   00000000   00000000   00000000   00000000   00000000   00000000   00000000   00000000   00000000   00000000   00000000   00000000   00000000   00000000   00000000   00000000   00000000   00000000   00000000   00000000   00000000   00000000   00000000   00000000IN6353  
322BARUERI   U    00000031078301072004C000000000000000000397700000000000000000000000000000000000000000000000000000000000039770000000000000000000000000000000000000000000000000000000000000000000000000001   040194750001807259379100038300100003072   00000000   00000000   00000000   00000000   00000000   00000000   00000000   00000000   00000000   00000000   00000000   00000000   00000000   00000000   00000000   00000000   00000000   00000000   00000000   00000000   00000000   00000000   00000000   00000000   00000000   00000000   00000000   00000000   00000000   00000000   00000000   00000000   00000000   00000000   00000000   00000000   00000000   00000000   00000000IN6353  
322BARUERI   U    00000031078401072004C000000600000000000397700000000000000000000000000000000000000000000000000000000000039770000000000000000000000000000000000000000000000000000000000000000000000000001   040194750001807259379100038300100003073   00000000   00000000   00000000   00000000   00000000   00000000   00000000   00000000   00000000   00000000   00000000   00000000   00000000   00000000   00000000   00000000   00000000   00000000   00000000   00000000   00000000   00000000   00000000   00000000   00000000   00000000   00000000   00000000   00000000   00000000   00000000   00000000   00000000   00000000   00000000   00000000   00000000   00000000   00000000IN5353  
322BARUERI   U    00000031078501072004C000000000000000000397700000000000000000000000000000000000000000000000000000000000039770000000000000000000000000000000000000000000000000000000000000000000000000001   040194750001807259379100038300100003074   00000000   00000000   00000000   00000000   00000000   00000000   00000000   00000000   00000000   00000000   00000000   00000000   00000000   00000000   00000000   00000000   00000000   00000000   00000000   00000000   00000000   00000000   00000000   00000000   00000000   00000000   00000000   00000000   00000000   00000000   00000000   00000000   00000000   00000000   00000000   00000000   00000000   00000000   00000000IN5353  
322BARUERI   U    00000031078601072004C000000300000000000376300000000000000000000000000000000000000000000000000000000000037630000000000000000000000000000000000000000000000000000000000000000000000000001   040194750001807259379100038300100003077   00000000   00000000   00000000   00000000   00000000   00000000   00000000   00000000   00000000   00000000   00000000   00000000   00000000   00000000   00000000   00000000   00000000   00000000   00000000   00000000   00000000   00000000   00000000   00000000   00000000   00000000   00000000   00000000   00000000   00000000   00000000   00000000   00000000   00000000   00000000   00000000   00000000   00000000   00000000IN6353  
322BARUERI   U    00000031078701072004C000000300000000000376300000000000000000000000000000000000000000000000000000000000037630000000000000000000000000000000000000000000000000000000000000000000000000001   040194750001807259379100038300100003080   00000000   00000000   00000000   00000000   00000000   00000000   00000000   00000000   00000000   00000000   00000000   00000000   00000000   00000000   00000000   00000000   00000000   00000000   00000000   00000000   00000000   00000000   00000000   00000000   00000000   00000000   00000000   00000000   00000000   00000000   00000000   00000000   00000000   00000000   00000000   00000000   00000000   00000000   00000000IN6353  
322BARUERI   U    00000031078801072004C000000000000000000376300000000000000000000000000000000000000000000000000000000000037630000000000000000000000000000000000000000000000000000000000000000000000000001   040194750001807259379100038300100003081   00000000   00000000   00000000   00000000   00000000   00000000   00000000   00000000   00000000   00000000   00000000   00000000   00000000   00000000   00000000   00000000   00000000   00000000   00000000   00000000   00000000   00000000   00000000   00000000   00000000   00000000   00000000   00000000   00000000   00000000   00000000   00000000   00000000   00000000   00000000   00000000   00000000   00000000   00000000IN6353  
322BARUERI   U    00000031078901072004C000000000000000000376300000000000000000000000000000000000000000000000000000000000037630000000000000000000000000000000000000000000000000000000000000000000000000001   040194750001807259379100038300100003082   00000000   00000000   00000000   00000000   00000000   00000000   00000000   00000000   00000000   00000000   00000000   00000000   00000000   00000000   00000000   00000000   00000000   00000000   00000000   00000000   00000000   00000000   00000000   00000000   00000000   00000000   00000000   00000000   00000000   00000000   00000000   00000000   00000000   00000000   00000000   00000000   00000000   00000000   00000000IN6353  
322BARUERI   U    00000031079001072004C000000700000000000702000000000000000000000000000000000000000000000000000000000000070200000000000000000000000000000000000000000000000000000000000000000000000000001   040194750001807259379100038300100003083   00000000   00000000   00000000   00000000   00000000   00000000   00000000   00000000   00000000   00000000   00000000   00000000   00000000   00000000   00000000   00000000   00000000   00000000   00000000   00000000   00000000   00000000   00000000   00000000   00000000   00000000   00000000   00000000   00000000   00000000   00000000   00000000   00000000   00000000   00000000   00000000   00000000   00000000   00000000IN6353  
322BARUERI   U    00000031079101072004C000000000000000000397700000000000000000000000000000000000000000000000000000000000039770000000000000000000000000000000000000000000000000000000000000000000000000001   040194750001807259379100038300100003084   00000000   00000000   00000000   00000000   00000000   00000000   00000000   00000000   00000000   00000000   00000000   00000000   00000000   00000000   00000000   00000000   00000000   00000000   00000000   00000000   00000000   00000000   00000000   00000000   00000000   00000000   00000000   00000000   00000000   00000000   00000000   00000000   00000000   00000000   00000000   00000000   00000000   00000000   00000000IN6353  
322BARUERI   U    00000031079201072004C000000700000000000397700000000000000000000000000000000000000000000000000000000000039770000000000000000000000000000000000000000000000000000000000000000000000000001   040194750001807259379100038300100003088   00000000   00000000   00000000   00000000   00000000   00000000   00000000   00000000   00000000   00000000   00000000   00000000   00000000   00000000   00000000   00000000   00000000   00000000   00000000   00000000   00000000   00000000   00000000   00000000   00000000   00000000   00000000   00000000   00000000   00000000   00000000   00000000   00000000   00000000   00000000   00000000   00000000   00000000   00000000IN5353  
322BARUERI   U    00000031079301072004C000000000000000000397700000000000000000000000000000000000000000000000000000000000039770000000000000000000000000000000000000000000000000000000000000000000000000001   040194750001807259379100038300100003089   00000000   00000000   00000000   00000000   00000000   00000000   00000000   00000000   00000000   00000000   00000000   00000000   00000000   00000000   00000000   00000000   00000000   00000000   00000000   00000000   00000000   00000000   00000000   00000000   00000000   00000000   00000000   00000000   00000000   00000000   00000000   00000000   00000000   00000000   00000000   00000000   00000000   00000000   00000000IN5353  
322BARUERI   U    00000031079401072004C000000000000000000397700000000000000000000000000000000000000000000000000000000000039770000000000000000000000000000000000000000000000000000000000000000000000000001   040194750001807259379100038300100003090   00000000   00000000   00000000   00000000   00000000   00000000   00000000   00000000   00000000   00000000   00000000   00000000   00000000   00000000   00000000   00000000   00000000   00000000   00000000   00000000   00000000   00000000   00000000   00000000   00000000   00000000   00000000   00000000   00000000   00000000   00000000   00000000   00000000   00000000   00000000   00000000   00000000   00000000   00000000IN5353  
322BARUERI   U    00000031079501072004C000000600000000000434900000000000000000000000000000000000000000000000000000000000043490000000000000000000000000000000000000000000000000000000000000000000000000001   040194750001807259379100038300100003091   00000000   00000000   00000000   00000000   00000000   00000000   00000000   00000000   00000000   00000000   00000000   00000000   00000000   00000000   00000000   00000000   00000000   00000000   00000000   00000000   00000000   00000000   00000000   00000000   00000000   00000000   00000000   00000000   00000000   00000000   00000000   00000000   00000000   00000000   00000000   00000000   00000000   00000000   00000000IN6353  
322BARUERI   U    00000031079601072004C000000000000000000397700000000000000000000000000000000000000000000000000000000000039770000000000000000000000000000000000000000000000000000000000000000000000000001   040194750001807259379100038300100003092   00000000   00000000   00000000   00000000   00000000   00000000   00000000   00000000   00000000   00000000   00000000   00000000   00000000   00000000   00000000   00000000   00000000   00000000   00000000   00000000   00000000   00000000   00000000   00000000   00000000   00000000   00000000   00000000   00000000   00000000   00000000   00000000   00000000   00000000   00000000   00000000   00000000   00000000   00000000IN6353  
322BARUERI   U    00000031079701072004C000000000000000000397700000000000000000000000000000000000000000000000000000000000039770000000000000000000000000000000000000000000000000000000000000000000000000001   040194750001807259379100038300100003093   00000000   00000000   00000000   00000000   00000000   00000000   00000000   00000000   00000000   00000000   00000000   00000000   00000000   00000000   00000000   00000000   00000000   00000000   00000000   00000000   00000000   00000000   00000000   00000000   00000000   00000000   00000000   00000000   00000000   00000000   00000000   00000000   00000000   00000000   00000000   00000000   00000000   00000000   00000000IN6353  
322BARUERI   U    00000031079801072004C000000600000000000453300000000000000000000000000000000000000000000000000000000000045330000000000000000000000000000000000000000000000000000000000000000000000000001   040194750001807259379100038300100003094   00000000   00000000   00000000   00000000   00000000   00000000   00000000   00000000   00000000   00000000   00000000   00000000   00000000   00000000   00000000   00000000   00000000   00000000   00000000   00000000   00000000   00000000   00000000   00000000   00000000   00000000   00000000   00000000   00000000   00000000   00000000   00000000   00000000   00000000   00000000   00000000   00000000   00000000   00000000IN6353  
322BARUERI   U    00000031079901072004C000000000000000000397700000000000000000000000000000000000000000000000000000000000039770000000000000000000000000000000000000000000000000000000000000000000000000001   040194750001807259379100038300100003095   00000000   00000000   00000000   00000000   00000000   00000000   00000000   00000000   00000000   00000000   00000000   00000000   00000000   00000000   00000000   00000000   00000000   00000000   00000000   00000000   00000000   00000000   00000000   00000000   00000000   00000000   00000000   00000000   00000000   00000000   00000000   00000000   00000000   00000000   00000000   00000000   00000000   00000000   00000000IN6353  
322BARUERI   U    00000031080001072004C000000200000000000397700000000000000000000000000000000000000000000000000000000000039770000000000000000000000000000000000000000000000000000000000000000000000000001   040194750001807259379100038300100003096   00000000   00000000   00000000   00000000   00000000   00000000   00000000   00000000   00000000   00000000   00000000   00000000   00000000   00000000   00000000   00000000   00000000   00000000   00000000   00000000   00000000   00000000   00000000   00000000   00000000   00000000   00000000   00000000   00000000   00000000   00000000   00000000   00000000   00000000   00000000   00000000   00000000   00000000   00000000IN5353  
322BARUERI   U    00000031080101072004C000000600000000000536000000000000000000000000000000000000000000000000000000000000053600000000000000000000000000000000000000000000000000000000000000000000000000001   040194750001807259379100038300100003100   00000000   00000000   00000000   00000000   00000000   00000000   00000000   00000000   00000000   00000000   00000000   00000000   00000000   00000000   00000000   00000000   00000000   00000000   00000000   00000000   00000000   00000000   00000000   00000000   00000000   00000000   00000000   00000000   00000000   00000000   00000000   00000000   00000000   00000000   00000000   00000000   00000000   00000000   00000000IN5353  
322BARUERI   U    00000031080201072004C000000000000000000397700000000000000000000000000000000000000000000000000000000000039770000000000000000000000000000000000000000000000000000000000000000000000000001   040194750001807259379100038300100003101   00000000   00000000   00000000   00000000   00000000   00000000   00000000   00000000   00000000   00000000   00000000   00000000   00000000   00000000   00000000   00000000   00000000   00000000   00000000   00000000   00000000   00000000   00000000   00000000   00000000   00000000   00000000   00000000   00000000   00000000   00000000   00000000   00000000   00000000   00000000   00000000   00000000   00000000   00000000IN5353  
322BARUERI   U    00000031080301072004C000000400000000000649600000000000000000000000000000000000000000000000000000000000064960000000000000000000000000000000000000000000000000000000000000000000000000001   040194750001807259379100038300100003104   00000000   00000000   00000000   00000000   00000000   00000000   00000000   00000000   00000000   00000000   00000000   00000000   00000000   00000000   00000000   00000000   00000000   00000000   00000000   00000000   00000000   00000000   00000000   00000000   00000000   00000000   00000000   00000000   00000000   00000000   00000000   00000000   00000000   00000000   00000000   00000000   00000000   00000000   00000000IN6353  
322BARUERI   U    00000031080401072004C000000200000000000376300000000000000000000000000000000000000000000000000000000000037630000000000000000000000000000000000000000000000000000000000000000000000000001   040194750001807259379100038300100003105   00000000   00000000   00000000   00000000   00000000   00000000   00000000   00000000   00000000   00000000   00000000   00000000   00000000   00000000   00000000   00000000   00000000   00000000   00000000   00000000   00000000   00000000   00000000   00000000   00000000   00000000   00000000   00000000   00000000   00000000   00000000   00000000   00000000   00000000   00000000   00000000   00000000   00000000   00000000IN6353  
322BARUERI   U    00000031080501072004C000000900000000000651500000000000000000000000000000000000000000000000000000000000065150000000000000000000000000000000000000000000000000000000000000000000000000001   040194750001807259379100038300100003108   00000000   00000000   00000000   00000000   00000000   00000000   00000000   00000000   00000000   00000000   00000000   00000000   00000000   00000000   00000000   00000000   00000000   00000000   00000000   00000000   00000000   00000000   00000000   00000000   00000000   00000000   00000000   00000000   00000000   00000000   00000000   00000000   00000000   00000000   00000000   00000000   00000000   00000000   00000000IN5353  
322BARUERI   U    00000031080601072004C000000000000000000397700000000000000000000000000000000000000000000000000000000000039770000000000000000000000000000000000000000000000000000000000000000000000000001   040194750001807259379100038300100003109   00000000   00000000   00000000   00000000   00000000   00000000   00000000   00000000   00000000   00000000   00000000   00000000   00000000   00000000   00000000   00000000   00000000   00000000   00000000   00000000   00000000   00000000   00000000   00000000   00000000   00000000   00000000   00000000   00000000   00000000   00000000   00000000   00000000   00000000   00000000   00000000   00000000   00000000   00000000IN5353  
322BARUERI   U    00000031080701072004C000000000000000000397700000000000000000000000000000000000000000000000000000000000039770000000000000000000000000000000000000000000000000000000000000000000000000001   040194750001807259379100038300100003110   00000000   00000000   00000000   00000000   00000000   00000000   00000000   00000000   00000000   00000000   00000000   00000000   00000000   00000000   00000000   00000000   00000000   00000000   00000000   00000000   00000000   00000000   00000000   00000000   00000000   00000000   00000000   00000000   00000000   00000000   00000000   00000000   00000000   00000000   00000000   00000000   00000000   00000000   00000000IN5353  
322BARUERI   U    00000031080801072004C000000700000000000465700000000000000000000000000000000000000000000000000000000000046570000000000000000000000000000000000000000000000000000000000000000000000000001   040194750001807259379100038300100003111   00000000   00000000   00000000   00000000   00000000   00000000   00000000   00000000   00000000   00000000   00000000   00000000   00000000   00000000   00000000   00000000   00000000   00000000   00000000   00000000   00000000   00000000   00000000   00000000   00000000   00000000   00000000   00000000   00000000   00000000   00000000   00000000   00000000   00000000   00000000   00000000   00000000   00000000   00000000IN6353  
322BARUERI   U    00000031080901072004C000000000000000000376300000000000000000000000000000000000000000000000000000000000037630000000000000000000000000000000000000000000000000000000000000000000000000001   040194750001807259379100038300100003112   00000000   00000000   00000000   00000000   00000000   00000000   00000000   00000000   00000000   00000000   00000000   00000000   00000000   00000000   00000000   00000000   00000000   00000000   00000000   00000000   00000000   00000000   00000000   00000000   00000000   00000000   00000000   00000000   00000000   00000000   00000000   00000000   00000000   00000000   00000000   00000000   00000000   00000000   00000000IN6353  
322BARUERI   U    00000031081001072004C000002500000000001384100000000000000000000000000000000000000000000000000000000000138410000000000000000000000000000000000000000000000000000000000000000000000000001   040194750001807259379100038300100003113   00000000   00000000   00000000   00000000   00000000   00000000   00000000   00000000   00000000   00000000   00000000   00000000   00000000   00000000   00000000   00000000   00000000   00000000   00000000   00000000   00000000   00000000   00000000   00000000   00000000   00000000   00000000   00000000   00000000   00000000   00000000   00000000   00000000   00000000   00000000   00000000   00000000   00000000   00000000IN6353  
322BARUERI   U    00000031081101072004C000000500000000000561200000000000000000000000000000000000000000000000000000000000056120000000000000000000000000000000000000000000000000000000000000000000000000001   040194750001807259379100038300100003114   00000000   00000000   00000000   00000000   00000000   00000000   00000000   00000000   00000000   00000000   00000000   00000000   00000000   00000000   00000000   00000000   00000000   00000000   00000000   00000000   00000000   00000000   00000000   00000000   00000000   00000000   00000000   00000000   00000000   00000000   00000000   00000000   00000000   00000000   00000000   00000000   00000000   00000000   00000000IN6353  
322BARUERI   U    00000031081201072004C000000000000000000376300000000000000000000000000000000000000000000000000000000000037630000000000000000000000000000000000000000000000000000000000000000000000000001   040194750001807259379100038300100003115   00000000   00000000   00000000   00000000   00000000   00000000   00000000   00000000   00000000   00000000   00000000   00000000   00000000   00000000   00000000   00000000   00000000   00000000   00000000   00000000   00000000   00000000   00000000   00000000   00000000   00000000   00000000   00000000   00000000   00000000   00000000   00000000   00000000   00000000   00000000   00000000   00000000   00000000   00000000IN6353  
322BARUERI   U    00000031081301072004C000000300000000000376300000000000000000000000000000000000000000000000000000000000037630000000000000000000000000000000000000000000000000000000000000000000000000001   040194750001807259379100038300100003116   00000000   00000000   00000000   00000000   00000000   00000000   00000000   00000000   00000000   00000000   00000000   00000000   00000000   00000000   00000000   00000000   00000000   00000000   00000000   00000000   00000000   00000000   00000000   00000000   00000000   00000000   00000000   00000000   00000000   00000000   00000000   00000000   00000000   00000000   00000000   00000000   00000000   00000000   00000000IN6353  
322BARUERI   U    00000031081401072004C000000000000000000376300000000000000000000000000000000000000000000000000000000000037630000000000000000000000000000000000000000000000000000000000000000000000000001   040194750001807259379100038300100003117   00000000   00000000   00000000   00000000   00000000   00000000   00000000   00000000   00000000   00000000   00000000   00000000   00000000   00000000   00000000   00000000   00000000   00000000   00000000   00000000   00000000   00000000   00000000   00000000   00000000   00000000   00000000   00000000   00000000   00000000   00000000   00000000   00000000   00000000   00000000   00000000   00000000   00000000   00000000IN6353  
322BARUERI   U    00000031081501072004C000003000000000002425100000000000000000000000000000000000000000000000000000000000242510000000000000000000000000000000000000000000000000000000000000000000000000001   040194750001807259379100038300100003118   00000000   00000000   00000000   00000000   00000000   00000000   00000000   00000000   00000000   00000000   00000000   00000000   00000000   00000000   00000000   00000000   00000000   00000000   00000000   00000000   00000000   00000000   00000000   00000000   00000000   00000000   00000000   00000000   00000000   00000000   00000000   00000000   00000000   00000000   00000000   00000000   00000000   00000000   00000000IN6353  
322BARUERI   U    00000031081901072004C000000700000000000397700000000000000000000000000000000000000000000000000000000000039770000000000000000000000000000000000000000000000000000000000000000000000000001   040194750001807259379100038300100003121   00000000   00000000   00000000   00000000   00000000   00000000   00000000   00000000   00000000   00000000   00000000   00000000   00000000   00000000   00000000   00000000   00000000   00000000   00000000   00000000   00000000   00000000   00000000   00000000   00000000   00000000   00000000   00000000   00000000   00000000   00000000   00000000   00000000   00000000   00000000   00000000   00000000   00000000   00000000IN6353  
322BARUERI   U    00000031082001072004C000000000000000000397700000000000000000000000000000000000000000000000000000000000039770000000000000000000000000000000000000000000000000000000000000000000000000001   040194750001807259379100038300100003122   00000000   00000000   00000000   00000000   00000000   00000000   00000000   00000000   00000000   00000000   00000000   00000000   00000000   00000000   00000000   00000000   00000000   00000000   00000000   00000000   00000000   00000000   00000000   00000000   00000000   00000000   00000000   00000000   00000000   00000000   00000000   00000000   00000000   00000000   00000000   00000000   00000000   00000000   00000000IN6353  
322BARUERI   U    00000031110701072004C000000900000000000397700000000000000000000000000000000000000000000000000000000000039770000000000000000000000000000000000000000000000000000000000000000000000000001   0401947500018072593791000383001000030210010000302200100003023   00000000   00000000   00000000   00000000   00000000   00000000   00000000   00000000   00000000   00000000   00000000   00000000   00000000   00000000   00000000   00000000   00000000   00000000   00000000   00000000   00000000   00000000   00000000   00000000   00000000   00000000   00000000   00000000   00000000   00000000   00000000   00000000   00000000   00000000   00000000   00000000   00000000IN6353  
322BARUERI   U    00000031124801072004C000001000000000000958300000000000000000000000000000000000000000000000000000000000095830000000000000000000000000000000000000000000000000000000000000000000000000001   040194750001807259379100038300100003134   00000000   00000000   00000000   00000000   00000000   00000000   00000000   00000000   00000000   00000000   00000000   00000000   00000000   00000000   00000000   00000000   00000000   00000000   00000000   00000000   00000000   00000000   00000000   00000000   00000000   00000000   00000000   00000000   00000000   00000000   00000000   00000000   00000000   00000000   00000000   00000000   00000000   00000000   00000000IN5353  
322BARUERI   U    00000031124901072004C000000000000000000397700000000000000000000000000000000000000000000000000000000000039770000000000000000000000000000000000000000000000000000000000000000000000000001   040194750001807259379100038300100003135   00000000   00000000   00000000   00000000   00000000   00000000   00000000   00000000   00000000   00000000   00000000   00000000   00000000   00000000   00000000   00000000   00000000   00000000   00000000   00000000   00000000   00000000   00000000   00000000   00000000   00000000   00000000   00000000   00000000   00000000   00000000   00000000   00000000   00000000   00000000   00000000   00000000   00000000   00000000IN5353  
322BARUERI   U    00000031125001072004C000000600000000000350000000000000000000000000000000000000000000000000000000000000035000000000000000000000000000000000000000000000000000000000000000000000000000001   040194750001807259379100038300100003138   00000000   00000000   00000000   00000000   00000000   00000000   00000000   00000000   00000000   00000000   00000000   00000000   00000000   00000000   00000000   00000000   00000000   00000000   00000000   00000000   00000000   00000000   00000000   00000000   00000000   00000000   00000000   00000000   00000000   00000000   00000000   00000000   00000000   00000000   00000000   00000000   00000000   00000000   00000000IN5353  
322BARUERI   U    00000031125101072004C000000000000000000350000000000000000000000000000000000000000000000000000000000000035000000000000000000000000000000000000000000000000000000000000000000000000000001   040194750001807259379100038300100003139   00000000   00000000   00000000   00000000   00000000   00000000   00000000   00000000   00000000   00000000   00000000   00000000   00000000   00000000   00000000   00000000   00000000   00000000   00000000   00000000   00000000   00000000   00000000   00000000   00000000   00000000   00000000   00000000   00000000   00000000   00000000   00000000   00000000   00000000   00000000   00000000   00000000   00000000   00000000IN5353  
322BARUERI   U    00000031125201072004C000000600000000000350000000000000000000000000000000000000000000000000000000000000035000000000000000000000000000000000000000000000000000000000000000000000000000001   040194750001807259379100038300100003146   00000000   00000000   00000000   00000000   00000000   00000000   00000000   00000000   00000000   00000000   00000000   00000000   00000000   00000000   00000000   00000000   00000000   00000000   00000000   00000000   00000000   00000000   00000000   00000000   00000000   00000000   00000000   00000000   00000000   00000000   00000000   00000000   00000000   00000000   00000000   00000000   00000000   00000000   00000000IN5353  
322BARUERI   U    00000031125301072004C000000000000000000350000000000000000000000000000000000000000000000000000000000000035000000000000000000000000000000000000000000000000000000000000000000000000000001   040194750001807259379100038300100003147   00000000   00000000   00000000   00000000   00000000   00000000   00000000   00000000   00000000   00000000   00000000   00000000   00000000   00000000   00000000   00000000   00000000   00000000   00000000   00000000   00000000   00000000   00000000   00000000   00000000   00000000   00000000   00000000   00000000   00000000   00000000   00000000   00000000   00000000   00000000   00000000   00000000   00000000   00000000IN5353  
322BARUERI   U    00000031125401072004C000000600000000000350000000000000000000000000000000000000000000000000000000000000035000000000000000000000000000000000000000000000000000000000000000000000000000001   040194750001807259379100038300100003155   00000000   00000000   00000000   00000000   00000000   00000000   00000000   00000000   00000000   00000000   00000000   00000000   00000000   00000000   00000000   00000000   00000000   00000000   00000000   00000000   00000000   00000000   00000000   00000000   00000000   00000000   00000000   00000000   00000000   00000000   00000000   00000000   00000000   00000000   00000000   00000000   00000000   00000000   00000000IN5353  
322BARUERI   U    00000031125501072004C000000000000000000350000000000000000000000000000000000000000000000000000000000000035000000000000000000000000000000000000000000000000000000000000000000000000000001   040194750001807259379100038300100003156   00000000   00000000   00000000   00000000   00000000   00000000   00000000   00000000   00000000   00000000   00000000   00000000   00000000   00000000   00000000   00000000   00000000   00000000   00000000   00000000   00000000   00000000   00000000   00000000   00000000   00000000   00000000   00000000   00000000   00000000   00000000   00000000   00000000   00000000   00000000   00000000   00000000   00000000   00000000IN5353  
322BARUERI   U    00000031125601072004C000000500000000000948100000000000000000000000000000000000000000000000000000000000094810000000000000000000000000000000000000000000000000000000000000000000000000001   040194750001807259379100038300100003158   00000000   00000000   00000000   00000000   00000000   00000000   00000000   00000000   00000000   00000000   00000000   00000000   00000000   00000000   00000000   00000000   00000000   00000000   00000000   00000000   00000000   00000000   00000000   00000000   00000000   00000000   00000000   00000000   00000000   00000000   00000000   00000000   00000000   00000000   00000000   00000000   00000000   00000000   00000000IN5353  
322BARUERI   U    00000031125701072004C000000000000000000350000000000000000000000000000000000000000000000000000000000000035000000000000000000000000000000000000000000000000000000000000000000000000000001   040194750001807259379100038300100003159   00000000   00000000   00000000   00000000   00000000   00000000   00000000   00000000   00000000   00000000   00000000   00000000   00000000   00000000   00000000   00000000   00000000   00000000   00000000   00000000   00000000   00000000   00000000   00000000   00000000   00000000   00000000   00000000   00000000   00000000   00000000   00000000   00000000   00000000   00000000   00000000   00000000   00000000   00000000IN5353  
322BARUERI   U    00000031125801072004C000000700000000000637500000000000000000000000000000000000000000000000000000000000063750000000000000000000000000000000000000000000000000000000000000000000000000001   040194750001807259379100038300100003169   00000000   00000000   00000000   00000000   00000000   00000000   00000000   00000000   00000000   00000000   00000000   00000000   00000000   00000000   00000000   00000000   00000000   00000000   00000000   00000000   00000000   00000000   00000000   00000000   00000000   00000000   00000000   00000000   00000000   00000000   00000000   00000000   00000000   00000000   00000000   00000000   00000000   00000000   00000000IN5353  
322BARUERI   U    00000031125901072004C000001000000000000397700000000000000000000000000000000000000000000000000000000000039770000000000000000000000000000000000000000000000000000000000000000000000000001   040194750001807259379100038300100003172   00000000   00000000   00000000   00000000   00000000   00000000   00000000   00000000   00000000   00000000   00000000   00000000   00000000   00000000   00000000   00000000   00000000   00000000   00000000   00000000   00000000   00000000   00000000   00000000   00000000   00000000   00000000   00000000   00000000   00000000   00000000   00000000   00000000   00000000   00000000   00000000   00000000   00000000   00000000IN5353  
322BARUERI   U    00000031126001072004C000000000000000000397700000000000000000000000000000000000000000000000000000000000039770000000000000000000000000000000000000000000000000000000000000000000000000001   040194750001807259379100038300100003173   00000000   00000000   00000000   00000000   00000000   00000000   00000000   00000000   00000000   00000000   00000000   00000000   00000000   00000000   00000000   00000000   00000000   00000000   00000000   00000000   00000000   00000000   00000000   00000000   00000000   00000000   00000000   00000000   00000000   00000000   00000000   00000000   00000000   00000000   00000000   00000000   00000000   00000000   00000000IN5353  
322BARUERI   U    00000031126101072004C000002000000000002708400000000000000000000000000000000000000000000000000000000000270840000000000000000000000000000000000000000000000000000000000000000000000000001   040194750001807259379100038300100003182   00000000   00000000   00000000   00000000   00000000   00000000   00000000   00000000   00000000   00000000   00000000   00000000   00000000   00000000   00000000   00000000   00000000   00000000   00000000   00000000   00000000   00000000   00000000   00000000   00000000   00000000   00000000   00000000   00000000   00000000   00000000   00000000   00000000   00000000   00000000   00000000   00000000   00000000   00000000IN5353  
322BARUERI   U    00000031126201072004C000000400000000000350000000000000000000000000000000000000000000000000000000000000035000000000000000000000000000000000000000000000000000000000000000000000000000001   040194750001807259379100038300100003207   00000000   00000000   00000000   00000000   00000000   00000000   00000000   00000000   00000000   00000000   00000000   00000000   00000000   00000000   00000000   00000000   00000000   00000000   00000000   00000000   00000000   00000000   00000000   00000000   00000000   00000000   00000000   00000000   00000000   00000000   00000000   00000000   00000000   00000000   00000000   00000000   00000000   00000000   00000000IN5353  
322BARUERI   U    00000031126301072004C000000000000000000350000000000000000000000000000000000000000000000000000000000000035000000000000000000000000000000000000000000000000000000000000000000000000000001   040194750001807259379100038300100003208   00000000   00000000   00000000   00000000   00000000   00000000   00000000   00000000   00000000   00000000   00000000   00000000   00000000   00000000   00000000   00000000   00000000   00000000   00000000   00000000   00000000   00000000   00000000   00000000   00000000   00000000   00000000   00000000   00000000   00000000   00000000   00000000   00000000   00000000   00000000   00000000   00000000   00000000   00000000IN5353  
322BARUERI   U    00000031126401072004C000000300000000000350000000000000000000000000000000000000000000000000000000000000035000000000000000000000000000000000000000000000000000000000000000000000000000001   040194750001807259379100038300100003217   00000000   00000000   00000000   00000000   00000000   00000000   00000000   00000000   00000000   00000000   00000000   00000000   00000000   00000000   00000000   00000000   00000000   00000000   00000000   00000000   00000000   00000000   00000000   00000000   00000000   00000000   00000000   00000000   00000000   00000000   00000000   00000000   00000000   00000000   00000000   00000000   00000000   00000000   00000000IN5353  
322BARUERI   U    00000031126501072004C000000000000000000350000000000000000000000000000000000000000000000000000000000000035000000000000000000000000000000000000000000000000000000000000000000000000000001   040194750001807259379100038300100003218   00000000   00000000   00000000   00000000   00000000   00000000   00000000   00000000   00000000   00000000   00000000   00000000   00000000   00000000   00000000   00000000   00000000   00000000   00000000   00000000   00000000   00000000   00000000   00000000   00000000   00000000   00000000   00000000   00000000   00000000   00000000   00000000   00000000   00000000   00000000   00000000   00000000   00000000   00000000IN5353  
322BARUERI   U    00000031126601072004C000000600000000000381400000000000000000000000000000000000000000000000000000000000038140000000000000000000000000000000000000000000000000000000000000000000000000001   040194750001807259379100038300100003233   00000000   00000000   00000000   00000000   00000000   00000000   00000000   00000000   00000000   00000000   00000000   00000000   00000000   00000000   00000000   00000000   00000000   00000000   00000000   00000000   00000000   00000000   00000000   00000000   00000000   00000000   00000000   00000000   00000000   00000000   00000000   00000000   00000000   00000000   00000000   00000000   00000000   00000000   00000000IN5353  
322BARUERI   U    00000031126701072004C000000000000000000350000000000000000000000000000000000000000000000000000000000000035000000000000000000000000000000000000000000000000000000000000000000000000000001   040194750001807259379100038300100003234   00000000   00000000   00000000   00000000   00000000   00000000   00000000   00000000   00000000   00000000   00000000   00000000   00000000   00000000   00000000   00000000   00000000   00000000   00000000   00000000   00000000   00000000   00000000   00000000   00000000   00000000   00000000   00000000   00000000   00000000   00000000   00000000   00000000   00000000   00000000   00000000   00000000   00000000   00000000IN5353  
322BARUERI   U    00000031130302072004C000000600000000000397700000000000000000000000000000000000000000000000000000000000039770000000000000000000000000000000000000000000000000000000000000000000000000001   040194750001807259379100038300100003200   00000000   00000000   00000000   00000000   00000000   00000000   00000000   00000000   00000000   00000000   00000000   00000000   00000000   00000000   00000000   00000000   00000000   00000000   00000000   00000000   00000000   00000000   00000000   00000000   00000000   00000000   00000000   00000000   00000000   00000000   00000000   00000000   00000000   00000000   00000000   00000000   00000000   00000000   00000000IN5353  
322BARUERI   U    00000031130402072004C000000000000000000397700000000000000000000000000000000000000000000000000000000000039770000000000000000000000000000000000000000000000000000000000000000000000000001   040194750001807259379100038300100003201   00000000   00000000   00000000   00000000   00000000   00000000   00000000   00000000   00000000   00000000   00000000   00000000   00000000   00000000   00000000   00000000   00000000   00000000   00000000   00000000   00000000   00000000   00000000   00000000   00000000   00000000   00000000   00000000   00000000   00000000   00000000   00000000   00000000   00000000   00000000   00000000   00000000   00000000   00000000IN5353  
322BARUERI   U    00000031130502072004C000001600000000001361800000000000000000000000000000000000000000000000000000000000136180000000000000000000000000000000000000000000000000000000000000000000000000001   040194750001807259379100038300100003219   00000000   00000000   00000000   00000000   00000000   00000000   00000000   00000000   00000000   00000000   00000000   00000000   00000000   00000000   00000000   00000000   00000000   00000000   00000000   00000000   00000000   00000000   00000000   00000000   00000000   00000000   00000000   00000000   00000000   00000000   00000000   00000000   00000000   00000000   00000000   00000000   00000000   00000000   00000000IN5353  
322BARUERI   U    00000031130602072004C000000600000000000609300000000000000000000000000000000000000000000000000000000000060930000000000000000000000000000000000000000000000000000000000000000000000000001   040194750001807259379100038300100003222   00000000   00000000   00000000   00000000   00000000   00000000   00000000   00000000   00000000   00000000   00000000   00000000   00000000   00000000   00000000   00000000   00000000   00000000   00000000   00000000   00000000   00000000   00000000   00000000   00000000   00000000   00000000   00000000   00000000   00000000   00000000   00000000   00000000   00000000   00000000   00000000   00000000   00000000   00000000IN5353  
322BARUERI   U    00000031130702072004C000000000000000000397700000000000000000000000000000000000000000000000000000000000039770000000000000000000000000000000000000000000000000000000000000000000000000001   040194750001807259379100038300100003223   00000000   00000000   00000000   00000000   00000000   00000000   00000000   00000000   00000000   00000000   00000000   00000000   00000000   00000000   00000000   00000000   00000000   00000000   00000000   00000000   00000000   00000000   00000000   00000000   00000000   00000000   00000000   00000000   00000000   00000000   00000000   00000000   00000000   00000000   00000000   00000000   00000000   00000000   00000000IN5353  
322BARUERI   U    00000031130802072004C000001000000000001032700000000000000000000000000000000000000000000000000000000000103270000000000000000000000000000000000000000000000000000000000000000000000000001   040194750001807259379100038300100003243   00000000   00000000   00000000   00000000   00000000   00000000   00000000   00000000   00000000   00000000   00000000   00000000   00000000   00000000   00000000   00000000   00000000   00000000   00000000   00000000   00000000   00000000   00000000   00000000   00000000   00000000   00000000   00000000   00000000   00000000   00000000   00000000   00000000   00000000   00000000   00000000   00000000   00000000   00000000IN5353  
322BARUERI   U    00000031146002072004C000001700000000001565200000000000000000000000000000000000000000000000000000000000156520000000000000000000000000000000000000000000000000000000000000000000000000001   040194750001807259379100038300100003001   00000000   00000000   00000000   00000000   00000000   00000000   00000000   00000000   00000000   00000000   00000000   00000000   00000000   00000000   00000000   00000000   00000000   00000000   00000000   00000000   00000000   00000000   00000000   00000000   00000000   00000000   00000000   00000000   00000000   00000000   00000000   00000000   00000000   00000000   00000000   00000000   00000000   00000000   00000000IN6353  
322BARUERI   U    00000031146102072004C000000000000000000421500000000000000000000000000000000000000000000000000000000000042150000000000000000000000000000000000000000000000000000000000000000000000000001   040194750001807259379100038300100003002   00000000   00000000   00000000   00000000   00000000   00000000   00000000   00000000   00000000   00000000   00000000   00000000   00000000   00000000   00000000   00000000   00000000   00000000   00000000   00000000   00000000   00000000   00000000   00000000   00000000   00000000   00000000   00000000   00000000   00000000   00000000   00000000   00000000   00000000   00000000   00000000   00000000   00000000   00000000IN6353  
322BARUERI   U    00000031146202072004C000000000000000000376300000000000000000000000000000000000000000000000000000000000037630000000000000000000000000000000000000000000000000000000000000000000000000001   040194750001807259379100038300100003003   00000000   00000000   00000000   00000000   00000000   00000000   00000000   00000000   00000000   00000000   00000000   00000000   00000000   00000000   00000000   00000000   00000000   00000000   00000000   00000000   00000000   00000000   00000000   00000000   00000000   00000000   00000000   00000000   00000000   00000000   00000000   00000000   00000000   00000000   00000000   00000000   00000000   00000000   00000000IN6353  
322BARUERI   U    00000031146302072004C000000000000000000376300000000000000000000000000000000000000000000000000000000000037630000000000000000000000000000000000000000000000000000000000000000000000000001   040194750001807259379100038300100003004   00000000   00000000   00000000   00000000   00000000   00000000   00000000   00000000   00000000   00000000   00000000   00000000   00000000   00000000   00000000   00000000   00000000   00000000   00000000   00000000   00000000   00000000   00000000   00000000   00000000   00000000   00000000   00000000   00000000   00000000   00000000   00000000   00000000   00000000   00000000   00000000   00000000   00000000   00000000IN6353  
322BARUERI   U    00000031146402072004C000000200000000000515300000000000000000000000000000000000000000000000000000000000051530000000000000000000000000000000000000000000000000000000000000000000000000001   040194750001807259379100038300100003005   00000000   00000000   00000000   00000000   00000000   00000000   00000000   00000000   00000000   00000000   00000000   00000000   00000000   00000000   00000000   00000000   00000000   00000000   00000000   00000000   00000000   00000000   00000000   00000000   00000000   00000000   00000000   00000000   00000000   00000000   00000000   00000000   00000000   00000000   00000000   00000000   00000000   00000000   00000000IN6353  
322BARUERI   U    00000031146502072004C000000000000000000376300000000000000000000000000000000000000000000000000000000000037630000000000000000000000000000000000000000000000000000000000000000000000000001   040194750001807259379100038300100003006   00000000   00000000   00000000   00000000   00000000   00000000   00000000   00000000   00000000   00000000   00000000   00000000   00000000   00000000   00000000   00000000   00000000   00000000   00000000   00000000   00000000   00000000   00000000   00000000   00000000   00000000   00000000   00000000   00000000   00000000   00000000   00000000   00000000   00000000   00000000   00000000   00000000   00000000   00000000IN6353  
322BARUERI   U    00000031146602072004C000000500000000000376300000000000000000000000000000000000000000000000000000000000037630000000000000000000000000000000000000000000000000000000000000000000000000001   040194750001807259379100038300100003017   00000000   00000000   00000000   00000000   00000000   00000000   00000000   00000000   00000000   00000000   00000000   00000000   00000000   00000000   00000000   00000000   00000000   00000000   00000000   00000000   00000000   00000000   00000000   00000000   00000000   00000000   00000000   00000000   00000000   00000000   00000000   00000000   00000000   00000000   00000000   00000000   00000000   00000000   00000000IN6353  
322BARUERI   U    00000031146702072004C000000000000000000376300000000000000000000000000000000000000000000000000000000000037630000000000000000000000000000000000000000000000000000000000000000000000000001   040194750001807259379100038300100003018   00000000   00000000   00000000   00000000   00000000   00000000   00000000   00000000   00000000   00000000   00000000   00000000   00000000   00000000   00000000   00000000   00000000   00000000   00000000   00000000   00000000   00000000   00000000   00000000   00000000   00000000   00000000   00000000   00000000   00000000   00000000   00000000   00000000   00000000   00000000   00000000   00000000   00000000   00000000IN6353  
322BARUERI   U    00000031146802072004C000000000000000000376300000000000000000000000000000000000000000000000000000000000037630000000000000000000000000000000000000000000000000000000000000000000000000001   040194750001807259379100038300100003019   00000000   00000000   00000000   00000000   00000000   00000000   00000000   00000000   00000000   00000000   00000000   00000000   00000000   00000000   00000000   00000000   00000000   00000000   00000000   00000000   00000000   00000000   00000000   00000000   00000000   00000000   00000000   00000000   00000000   00000000   00000000   00000000   00000000   00000000   00000000   00000000   00000000   00000000   00000000IN6353  
322BARUERI   U    00000031146902072004C000000500000000000376300000000000000000000000000000000000000000000000000000000000037630000000000000000000000000000000000000000000000000000000000000000000000000001   040194750001807259379100038300100003028   00000000   00000000   00000000   00000000   00000000   00000000   00000000   00000000   00000000   00000000   00000000   00000000   00000000   00000000   00000000   00000000   00000000   00000000   00000000   00000000   00000000   00000000   00000000   00000000   00000000   00000000   00000000   00000000   00000000   00000000   00000000   00000000   00000000   00000000   00000000   00000000   00000000   00000000   00000000IN6353  
322BARUERI   U    00000031147002072004C000000000000000000376300000000000000000000000000000000000000000000000000000000000037630000000000000000000000000000000000000000000000000000000000000000000000000001   040194750001807259379100038300100003029   00000000   00000000   00000000   00000000   00000000   00000000   00000000   00000000   00000000   00000000   00000000   00000000   00000000   00000000   00000000   00000000   00000000   00000000   00000000   00000000   00000000   00000000   00000000   00000000   00000000   00000000   00000000   00000000   00000000   00000000   00000000   00000000   00000000   00000000   00000000   00000000   00000000   00000000   00000000IN6353  
322BARUERI   U    00000031147102072004C000000000000000000376300000000000000000000000000000000000000000000000000000000000037630000000000000000000000000000000000000000000000000000000000000000000000000001   040194750001807259379100038300100003030   00000000   00000000   00000000   00000000   00000000   00000000   00000000   00000000   00000000   00000000   00000000   00000000   00000000   00000000   00000000   00000000   00000000   00000000   00000000   00000000   00000000   00000000   00000000   00000000   00000000   00000000   00000000   00000000   00000000   00000000   00000000   00000000   00000000   00000000   00000000   00000000   00000000   00000000   00000000IN6353  
322BARUERI   U    00000031147202072004C000000000000000000376300000000000000000000000000000000000000000000000000000000000037630000000000000000000000000000000000000000000000000000000000000000000000000001   040194750001807259379100038300100003031   00000000   00000000   00000000   00000000   00000000   00000000   00000000   00000000   00000000   00000000   00000000   00000000   00000000   00000000   00000000   00000000   00000000   00000000   00000000   00000000   00000000   00000000   00000000   00000000   00000000   00000000   00000000   00000000   00000000   00000000   00000000   00000000   00000000   00000000   00000000   00000000   00000000   00000000   00000000IN6353  
322BARUERI   U    00000031147302072004C000000600000000001334300000000000000000000000000000000000000000000000000000000000133430000000000000000000000000000000000000000000000000000000000000000000000000001   040194750001807259379100038300100003051   00000000   00000000   00000000   00000000   00000000   00000000   00000000   00000000   00000000   00000000   00000000   00000000   00000000   00000000   00000000   00000000   00000000   00000000   00000000   00000000   00000000   00000000   00000000   00000000   00000000   00000000   00000000   00000000   00000000   00000000   00000000   00000000   00000000   00000000   00000000   00000000   00000000   00000000   00000000IN6353  
322BARUERI   U    00000031147402072004C000000000000000000376300000000000000000000000000000000000000000000000000000000000037630000000000000000000000000000000000000000000000000000000000000000000000000001   040194750001807259379100038300100003052   00000000   00000000   00000000   00000000   00000000   00000000   00000000   00000000   00000000   00000000   00000000   00000000   00000000   00000000   00000000   00000000   00000000   00000000   00000000   00000000   00000000   00000000   00000000   00000000   00000000   00000000   00000000   00000000   00000000   00000000   00000000   00000000   00000000   00000000   00000000   00000000   00000000   00000000   00000000IN6353  
322BARUERI   U    00000031147502072004C000000000000000000376300000000000000000000000000000000000000000000000000000000000037630000000000000000000000000000000000000000000000000000000000000000000000000001   040194750001807259379100038300100003053   00000000   00000000   00000000   00000000   00000000   00000000   00000000   00000000   00000000   00000000   00000000   00000000   00000000   00000000   00000000   00000000   00000000   00000000   00000000   00000000   00000000   00000000   00000000   00000000   00000000   00000000   00000000   00000000   00000000   00000000   00000000   00000000   00000000   00000000   00000000   00000000   00000000   00000000   00000000IN6353  
322BARUERI   U    00000031147602072004C000000800000000001303100000000000000000000000000000000000000000000000000000000000130310000000000000000000000000000000000000000000000000000000000000000000000000001   040194750001807259379100038300100003054   00000000   00000000   00000000   00000000   00000000   00000000   00000000   00000000   00000000   00000000   00000000   00000000   00000000   00000000   00000000   00000000   00000000   00000000   00000000   00000000   00000000   00000000   00000000   00000000   00000000   00000000   00000000   00000000   00000000   00000000   00000000   00000000   00000000   00000000   00000000   00000000   00000000   00000000   00000000IN6353  
322BARUERI   U    00000031147702072004C000000800000000000544400000000000000000000000000000000000000000000000000000000000054440000000000000000000000000000000000000000000000000000000000000000000000000001   040194750001807259379100038300100003085   00000000   00000000   00000000   00000000   00000000   00000000   00000000   00000000   00000000   00000000   00000000   00000000   00000000   00000000   00000000   00000000   00000000   00000000   00000000   00000000   00000000   00000000   00000000   00000000   00000000   00000000   00000000   00000000   00000000   00000000   00000000   00000000   00000000   00000000   00000000   00000000   00000000   00000000   00000000IN6353  
322BARUERI   U    00000031147802072004C000000000000000000376300000000000000000000000000000000000000000000000000000000000037630000000000000000000000000000000000000000000000000000000000000000000000000001   040194750001807259379100038300100003086   00000000   00000000   00000000   00000000   00000000   00000000   00000000   00000000   00000000   00000000   00000000   00000000   00000000   00000000   00000000   00000000   00000000   00000000   00000000   00000000   00000000   00000000   00000000   00000000   00000000   00000000   00000000   00000000   00000000   00000000   00000000   00000000   00000000   00000000   00000000   00000000   00000000   00000000   00000000IN6353  
322BARUERI   U    00000031147902072004C000000000000000000376300000000000000000000000000000000000000000000000000000000000037630000000000000000000000000000000000000000000000000000000000000000000000000001   040194750001807259379100038300100003087   00000000   00000000   00000000   00000000   00000000   00000000   00000000   00000000   00000000   00000000   00000000   00000000   00000000   00000000   00000000   00000000   00000000   00000000   00000000   00000000   00000000   00000000   00000000   00000000   00000000   00000000   00000000   00000000   00000000   00000000   00000000   00000000   00000000   00000000   00000000   00000000   00000000   00000000   00000000IN6353  
322BARUERI   U    00000031193102072004C000002000000000001689500000000000000000000000000000000000000000000000000000000000168950000000000000000000000000000000000000000000000000000000000000000000000000001   040194750001807259379100038300100003136   00000000   00000000   00000000   00000000   00000000   00000000   00000000   00000000   00000000   00000000   00000000   00000000   00000000   00000000   00000000   00000000   00000000   00000000   00000000   00000000   00000000   00000000   00000000   00000000   00000000   00000000   00000000   00000000   00000000   00000000   00000000   00000000   00000000   00000000   00000000   00000000   00000000   00000000   00000000IN5353  
