000INTEC TRANSPORTES                  MEDLEY S/A INDUST.FARMACEUTICA     1312021044OCO131210440                         
340OCORR131210440                                                                                                       
34152134798000320INTEC INTEGRACAO NAC TRANSP ENC. CARGAS                                                               
34250929710000179002002549240111122002095500                                                                            
34250929710000179002002549230111122002095500                                                                            
34250929710000179002002553980112122002125400                                                                            
34250929710000179002002553990112122002125400                                                                            
34250929710000179002002554000112122002125400                                                                            
34250929710000179002002553970112122002125400                                                                            
34250929710000179002002553960112122002125400                                                                            
34250929710000179002002554010112122002120200                                                                            
34250929710000179002002554410112122002000000                                                                            
34250929710000179002002553060112122002120500                                                                            
34250929710000179002002553850112122002102000                                                                            
34250929710000179002002553870112122002102000                                                                            
34250929710000179002002553830112122002113300                                                                            
34250929710000179002002553840112122002113300                                                                            
34250929710000179002002553910112122002133000                                                                            
34250929710000179002002553920112122002133000                                                                            
34250929710000179002002553930112122002133000                                                                            
34250929710000179002002553940112122002133000                                                                            
34250929710000179002002553950112122002133000                                                                            
34250929710000179002002554420112122002080000                                                                            
34250929710000179002002549250111122002095500                                                                            
34250929710000179002002549260111122002095500                                                                            
34250929710000179002002549270111122002095500                                                                            
34250929710000179002002552800112122002110800                                                                            
34250929710000179002002552810112122002110800                                                                            
34250929710000179002002552820112122002110800                                                                            
34250929710000179002002552830112122002110800                                                                            
34250929710000179002002552850112122002110800                                                                            
34250929710000179002002552340112122002000000                                                                            
34250929710000179002002552350112122002000000                                                                            
34250929710000179002002552360112122002000000                                                                            
34250929710000179002002552370112122002000000                                                                            
34250929710000179002002552380112122002000000                                                                            
34250929710000179002002552770111122002115000                                                                            
34250929710000179002002552920111122002000000                                                                            
34250929710000179002002552930111122002000000                                                                            
34250929710000179002002252940111122002000000                                                                            
34250929710000179002002553900112122002000000                                                                            
34250929710000179002002553880112122002000000                                                                            
34250929710000179002002553890112122002000000                                                                            
34250929710000179002002553800112122002000000                                                                            
34250929710000179002002553810112122002000000                                                                            
34250929710000179002002553820112122002000000                                                                            
34250929710000179002002553000112122002094600                                                                            
