000INTEC TRANSPORTES                  MEDLEY S/A INDUST.FARMACEUTICA     1612020917OCO161209170                         
340OCORR161209170                                                                                                       
34152134798000320INTEC INTEGRACAO NAC TRANSP ENC. CARGAS                                                               
34250929710000179002002554380113122002000000                                                                            
34250929710000179002002553110112122002123600                                                                            
34250929710000179002002555760113122002130000                                                                            
34250929710000179002002555750113122002130000                                                                            
34250929710000179002002555010113122002172900                                                                            
34250929710000179002002555040113122002172900                                                                            
34250929710000179002002555060113122002172900                                                                            
34250929710000179002002556000113122002172000                                                                            
34250929710000179002002554840114122002000000                                                                            
34250929710000179002002554880114122002110000                                                                            
34250929710000179002002554982013122002000000                                                                            
34250929710000179002002555082013122002000000                                                                            
34250929710000179002002555092013122002000000                                                                            
34250929710000179002002555102013122002000000                                                                            
34250929710000179002002552330112122002000000                                                                            
34250929710000179002002552390112122002000000                                                                            
34250929710000179002002552400112122002000000                                                                            
34250929710000179002002552410112122002000000                                                                            
34250929710000179002002552420112122002000000                                                                            
34250929710000179002002553070113122002145300                                                                            
34250929710000179002002553090112122002123600                                                                            
34250929710000179002002555390113122002085000                                                                            
34250929710000179002002555400113122002085000                                                                            
34250929710000179002002555410113122002085000                                                                            
34250929710000179002002555420113122002085000                                                                            
34250929710000179002002549170110122002000000                                                                            
34250929710000179002002549190110122002000000                                                                            
34250929710000179002002549140110122002000000                                                                            
34250929710000179002002549150110122002000000                                                                            
34250929710000179002002549160110122002000000                                                                            
34250929710000179002002549180110122002000000                                                                            
34250929710000179002002553190112122002000000                                                                            
34250929710000179002002553500112122002000000                                                                            
34250929710000179002002553510112122002000000                                                                            
34250929710000179002002553460112122002164600                                                                            
34250929710000179002002553450112122002164600                                                                            
34250929710000179002002553430112122002164600                                                                            
34250929710000179002002553440112122002164600                                                                            
34250929710000179002002553860112122002155200                                                                            
34250929710000179002002553410112122002155200                                                                            
34250929710000179002002553720112122002155200                                                                            
34250929710000179002002554990113122002141700                                                                            
34250929710000179002002555000113122002141700                                                                            
34250929710000179002002554940113122002130000                                                                            
