000INTEC TRANSPORTES                  TORRENT DO BRASIL LTDA.            0412022257OCO041222570                         
340OCORR041222570                                                                                                       
34112345678901234INTEC INTEGRACAO NAC TRANSP ENC. CARGAS                                        
34233078528000213002000000430114082002000000                                                                            
34233078528000213002000000610114082002153000                                                                            
34233078528000213002000000030114082002133500                                                                            
34233078528000213002000001150116082002121800                                                                            
34233078528000213002000000760116082002000000                                                                            
34233078528000213002000001300116082002000000                                                                            
34233078528000213002000001090116082002132000                                                                            
34233078528000213002000001320116082002000000                                                                            
34233078528000213002000001310116082002102500                                                                            
34233078528000213002000001190116082002000000                                                                            
34233078528000213002000001270116082002000000                                                                            
34233078528000213002000001110116082002131800                                                                            
34233078528000213002000000900116082002000000                                                                            
34233078528000213002000001180116082002122500                                                                            
34233078528000213002000000780116082002000000                                                                            
34233078528000213002000001000116082002113500                                                                            
34233078528000213002000001100121082002090000                                                                            
34233078528000213002000001140116082002160300                                                                            
34233078528000213002000001260116082002000000                                                                            
34233078528000213002000001120116082002000000                                                                            
34233078528000213002000001160116082002000000                                                                            
34233078528000213002000001130116082002143000                                                                            
34233078528000213002000001250121082002000000                                                                            
34233078528000213002000000770116082002175000                                                                            
34233078528000213002000000820116082002111500                                                                            
34233078528000213002000001080116082002000000                                                                            
34233078528000213002000000750116082002135000                                                                            
34233078528000213002000000890116082002094500                                                                            
34233078528000213002000000920116082002102000                                                                            
34233078528000213002000000720116082002174200                                                                            
34233078528000213002000001170116082002000000                                                                            
34233078528000213002000000802116082002000000                                                                            
34233078528000213002000000800121082002173700                                                                            
34233078528000213002000000970116082002152000                                                                            
34233078528000213002000001070116082002122500                                                                            
34233078528000213002000001230116082002150500                                                                            
34233078528000213002000001290116082002145500                                                                            
34233078528000213002000001010116082002100000                                                                            
34233078528000213002000000790116082002000000                                                                            
34233078528000213002000001210116082002123500                                                                            
34233078528000213002000001220116082002151500                                                                            
34233078528000213002000001200116082002000000                                                                            
34233078528000213002000001240122082002000000                                                                            
34233078528000213002000000990119082002123000                                                                            
34233078528000213002000001030116082002085000                                                                            
34233078528000213002000000950116082002090400                                                                            
34233078528000213002000001280119082002000000                                                                            
34233078528000213002000001330116082002152600                                                                            
34233078528000213002000001040116082002102000                                                                            
34233078528000213002000000930116082002163400                                                                            
34233078528000213002000000910116082002171000                                                                            
34233078528000213002000000730116082002095500                                                                            
34233078528000213002000000870116082002125500                                                                            
34233078528000213002000000980116082002124400                                                                            
34233078528000213002000000740116082002092000                                                                            
34233078528000213002000000830116082002101500                                                                            
34233078528000213002000000940116082002093000                                                                            
34233078528000213002000000880116082002165000                                                                            
34233078528000213002000000840116082002000000                                                                            
34233078528000213002000000710116082002113800                                                                            
34233078528000213002000000960116082002093200                                                                            
34233078528000213002000000850116082002133500                                                                            
34233078528000213002000001020116082002145500                                                                            
34233078528000213002000000860116082002200000                                                                            
34233078528000213002000001064616082002000000                                                                            
34233078528000213002000001060119082002120000                                                                            
34233078528000213002000000500113082002135000                                                                            
34233078528000213002000000250113082002100000                                                                            
34233078528000213002000000120112082002000000                                                                            
34233078528000213002000000100110082002084500                                                                            
34233078528000213002000000260112082002150500                                                                            
34233078528000213002000000610012082002000000                                                                            
34233078528000213002000000612009082002000000                                                                            
34233078528000213002000000612112082002000000                                                                            
34233078528000213002000000010109082002144000                                                                            
34233078528000213002000000130109082002165500                                                                            
34233078528000213002000000420112082002000000                                                                            
34233078528000213002000000640112082002000000                                                                            
34233078528000213002000000180112082002090600                                                                            
34233078528000213002000000280112082002091500                                                                            
34233078528000213002000000380112082002000000                                                                            
34233078528000213002000000340112082002000000                                                                            
34233078528000213002000000520112082002153500                                                                            
34233078528000213002000000410112082002122000                                                                            
34233078528000213002000000330112082002000000                                                                            
34233078528000213002000000530114082002115400                                                                            
34233078528000213002000000560114082002103500                                                                            
34233078528000213002000000690109082002000000                                                                            
34233078528000213002000000400112082002161500                                                                            
34233078528000213002000000170109082002000000                                                                            
34233078528000213002000000360112082002070000                                                                            
34233078528000213002000000460112082002000000                                                                            
34233078528000213002000000470112082002000000                                                                            
34233078528000213002000000290112082002103500                                                                            
34233078528000213002000000350112082002151500                                                                            
34233078528000213002000000210113082002171000                                                                            
34233078528000213002000000210612082002000000não havia ninguém no local                                                  
34233078528000213002000000650112082002160000                                                                            
34233078528000213002000000510114082002084500                                                                            
34233078528000213002000000200109082002000000                                                                            
34233078528000213002000000040112082002135500                                                                            
34233078528000213002000000062009082002000000                                                                            
34233078528000213002000000060112082002113500                                                                            
34233078528000213002000000370112082002141500                                                                            
34233078528000213002000000230112082002000000                                                                            
34233078528000213002000000670112082002164500                                                                            
34233078528000213002000000440112082002125800                                                                            
34233078528000213002000000142009082002000000                                                                            
34233078528000213002000000140112082002104500                                                                            
34233078528000213002000000150109082002162000                                                                            
34233078528000213002000000220112082002090500                                                                            
34233078528000213002000000600112082002134000                                                                            
34233078528000213002000000660109082002172000                                                                            
34233078528000213002000000310112082002000000                                                                            
34233078528000213002000000580113082002134000                                                                            
34233078528000213002000000570112082002134500                                                                            
34233078528000213002000000190112082002145500                                                                            
34233078528000213002000000070112082002133500                                                                            
34233078528000213002000000112009082002000000                                                                            
34233078528000213002000000110112082002160500                                                                            
34233078528000213002000000032112082002000000                                                                            
34233078528000213002000000030112082002133500                                                                            
34233078528000213002000000302113082002000000                                                                            
34233078528000213002000000300114082002144500                                                                            
34233078528000213002000000162009082002000000                                                                            
34233078528000213002000000162512082002000000                                                                            
34233078528000213002000000160112082002090000                                                                            
34233078528000213002000000080112082002000000                                                                            
34233078528000213002000000270112082002181500                                                                            
34233078528000213002000000020112082002000000                                                                            
34233078528000213002000000052009082002000000                                                                            
34233078528000213002000000050112082002095000                                                                            
34233078528000213002000000092009082002000000                                                                            
34233078528000213002000000090112082002140500                                                                            
34233078528000213002000000240113082002174000                                                                            
34233078528000213002000000390113082002151200                                                                            
34233078528000213002000000320112082002000000                                                                            
34233078528000213002000000480112082002000000                                                                            
34233078528000213002000000490113082002140000                                                                            
34233078528000213002000000550112082002000000                                                                            
34233078528000213002000000590112082002000000                                                                            
34233078528000213002000000700113082002142500                                                                            
34233078528000213002000000450112082002185500                                                                            
34233078528000213002000000540113082002000000                                                                            
34233078528000213002000000540612082002000000houve duas tentativas de entrega e não havia ninguém em casa                
34233078528000213002000001350119082002113000                                                                            
34233078528000213002000000800121082002173700                                                                            
34233078528000213002000001380128082002090500                                                                            
34233078528000213002000001390130082002112500                                                                            
34233078528000213002000001420112092002145600                                                                            
34233078528000213002000001430118092002090300                                                                            
34233078528000213002000001850125092002125000                                                                            
34233078528000213002000001860125092002125000                                                                            
34233078528000213002000001700125092002000000                                                                            
34233078528000213002000001710125092002000000                                                                            
34233078528000213002000001550129092002110000                                                                            
34233078528000213002000001540129092002110000                                                                            
34233078528000213002000001600127092002000000                                                                            
34233078528000213002000001610127092002000000                                                                            
34233078528000213002000001640125092002000000                                                                            
34233078528000213002000001650125092002000000                                                                            
34233078528000213002000001620125092002000000                                                                            
34233078528000213002000001630125092002000000                                                                            
34233078528000213002000001580125092002103000                                                                            
34233078528000213002000001590125092002103000                                                                            
34233078528000213002000001500124092002134000                                                                            
34233078528000213002000001510124092002134000                                                                            
34233078528000213002000001910124092002000000                                                                            
34233078528000213002000001920124092002000000                                                                            
34233078528000213002000001480124092002125600                                                                            
34233078528000213002000001490124092002125600                                                                            
34233078528000213002000001460124092002085000                                                                            
34233078528000213002000001470124092002085000                                                                            
34233078528000213002000001440124092002000000                                                                            
34233078528000213002000001450124092002000000                                                                            
34233078528000213002000001810124092002094800                                                                            
34233078528000213002000001820124092002094800                                                                            
34233078528000213002000001720124092002102000                                                                            
34233078528000213002000001730124092002102000                                                                            
34233078528000213002000001520124092002000000                                                                            
34233078528000213002000001660124092002140400                                                                            
34233078528000213002000001670124092002140400                                                                            
34233078528000213002000001770127092002100000                                                                            
34233078528000213002000001780127092002100000                                                                            
34233078528000213002000001790127092002100000                                                                            
34233078528000213002000001800127092002100000                                                                            
34233078528000213002000001870128092002000000                                                                            
34233078528000213002000001880128092002000000                                                                            
34233078528000213002000001560126092002000000                                                                            
34233078528000213002000001570126092002000000                                                                            
34233078528000213002000001830126092002000000                                                                            
34233078528000213002000001840126092002000000                                                                            
34233078528000213002000001530126092002104500                                                                            
34233078528000213002000001680126092002104500                                                                            
34233078528000213002000001690126092002104500                                                                            
34233078528000213002000001890126092002000000                                                                            
34233078528000213002000001900126092002000000                                                                            
34233078528000213002000001950126092002163000                                                                            
34233078528000213002000001940130092002000000                                                                            
34233078528000213002000001930126092002000000                                                                            
34233078528000213002000001980126092002181000                                                                            
34233078528000213002000001990126092002000000                                                                            
34233078528000213002000001960126092002000000                                                                            
34233078528000213002000002000126092002142000                                                                            
34233078528000213002000001970126092002124000                                                                            
34233078528000213002000002030127092002105000                                                                            
34233078528000213002000002040127092002160000                                                                            
34233078528000213002000002010127092002000000                                                                            
34233078528000213002000002020127092002103000                                                                            
34233078528000213002000002510104102002000000                                                                            
34233078528000213002000002500103102002092500                                                                            
34233078528000213002000002680130092002131500                                                                            
34233078528000213002000002690130092002131500                                                                            
34233078528000213002000002720101102002170000                                                                            
34233078528000213002000002740130092002090500                                                                            
34233078528000213002000002700130092002090500                                                                            
34233078528000213002000002710130092002090500                                                                            
34233078528000213002000002570101102002135500                                                                            
34233078528000213002000002730130092002152500                                                                            
34233078528000213002000002550101102002000000                                                                            
34233078528000213002000002430130092002154500                                                                            
34233078528000213002000002440130092002154500                                                                            
34233078528000213002000002460130092002184000                                                                            
34233078528000213002000002450130092002123000                                                                            
34233078528000213002000002670130092002175300                                                                            
34233078528000213002000002470130092002145200                                                                            
34233078528000213002000002650130092002185000                                                                            
34233078528000213002000002660101102002175000                                                                            
34233078528000213002000002520130092002165000                                                                            
34233078528000213002000002530130092002180300                                                                            
34233078528000213002000002560130092002144100                                                                            
34233078528000213002000002590130092002174300                                                                            
34233078528000213002000002480130092002172500                                                                            
34233078528000213002000002580101102002000000                                                                            
34233078528000213002000002624603102002000000                                                                            
34233078528000213002000002620109102002112500                                                                            
34233078528000213002000002630102102002000000                                                                            
34233078528000213002000002410102102002170500                                                                            
34233078528000213002000002050102102002000000                                                                            
34233078528000213002000002420101102002152500                                                                            
34233078528000213002000002150102102002151000                                                                            
34233078528000213002000002260102102002154000                                                                            
34233078528000213002000002490102102002142000                                                                            
34233078528000213002000002070101102002111200                                                                            
34233078528000213002000002062001102002000000                                                                            
34233078528000213002000002062002102002000000                                                                            
34233078528000213002000002060103102002133500                                                                            
34233078528000213002000002290102102002101700                                                                            
34233078528000213002000002294601102002000000                                                                            
34233078528000213002000002082001102002000000                                                                            
34233078528000213002000002080102102002105500                                                                            
34233078528000213002000002280101102002151400                                                                            
34233078528000213002000002270101102002120000                                                                            
34233078528000213002000002090101102002000000                                                                            
34233078528000213002000002100101102002165000                                                                            
34233078528000213002000002300101102002124500                                                                            
34233078528000213002000002320101102002120000                                                                            
34233078528000213002000002160102102002000000                                                                            
34233078528000213002000002250102102002161000                                                                            
34233078528000213002000002330102102002143500                                                                            
34233078528000213002000002350102102002145000                                                                            
34233078528000213002000002310102102002160000                                                                            
34233078528000213002000002390102102002142500                                                                            
34233078528000213002000002340102102002000000                                                                            
34233078528000213002000002400102102002115000                                                                            
34233078528000213002000002780102102002154200                                                                            
34233078528000213002000002830102102002111000                                                                            
34233078528000213002000002770908102002000000                                                                            
34233078528000213002000002770808102002081500                                                                            
34233078528000213002000002770122102002190200                                                                            
34233078528000213002000002810102102002133800                                                                            
34233078528000213002000002820102102002000000                                                                            
34233078528000213002000002370102102002160500                                                                            
34233078528000213002000002540103102002112000                                                                            
34233078528000213002000002360102102002000000                                                                            
34233078528000213002000002380103102002000000                                                                            
34233078528000213002000002860102102002151500                                                                            
34233078528000213002000002790102102002113000                                                                            
34233078528000213002000002870101102002000000                                                                            
34233078528000213002000002752001102002000000                                                                            
34233078528000213002000002750102102002143500                                                                            
34233078528000213002000002840101102002000000                                                                            
34233078528000213002000002850102102002075700                                                                            
34233078528000213002000002110101102002171000                                                                            
34233078528000213002000002600102102002094000                                                                            
34233078528000213002000002602001102002000000                                                                            
34233078528000213002000002130102102002134000                                                                            
34233078528000213002000002170102102002194900                                                                            
34233078528000213002000002190102102002181600                                                                            
34233078528000213002000002230102102002114600                                                                            
34233078528000213002000002210102102002093000                                                                            
34233078528000213002000002240102102002120000                                                                            
34233078528000213002000002140102102002090500                                                                            
34233078528000213002000002612002102002000000                                                                            
34233078528000213002000002610103102002103300                                                                            
34233078528000213002000002640102102002124200                                                                            
34233078528000213002000002120102102002000000                                                                            
34233078528000213002000002220103102002095500                                                                            
34233078528000213002000002222002102002000000                                                                            
34233078528000213002000002200102102002000000                                                                            
34233078528000213002000002180102102002112000                                                                            
34233078528000213002000002800104102002000000                                                                            
34233078528000213002000002880103102002102000                                                                            
34233078528000213002000002890104102002111000                                                                            
34233078528000213002000002900104102002000000                                                                            
34233078528000213002000002950108102002100000                                                                            
34233078528000213002000002912525102002160400                                                                            
34233078528000213002000002910025102002000000                                                                            
34233078528000213002000002918410102002000000                                                                            
34233078528000213002000002912614102002000000distribuidor alegou falta de repasse do icms                                
34233078528000213002000002920109102002110900                                                                            
34233078528000213002000002930109102002110900                                                                            
34233078528000213002000002940109102002110900                                                                            
34233078528000213002000002960028102002000000                                                                            
34233078528000213002000002960914102002000000                                                                            
34233078528000213002000002960914102002152300                                                                            
34233078528000213002000002962528102002121000                                                                            
34233078528000213002000003040114102002000000                                                                            
34233078528000213002000003000111102002135000                                                                            
34233078528000213002000002990111102002153000                                                                            
34233078528000213002000003010111102002152500                                                                            
34233078528000213002000003030111102002131500                                                                            
34233078528000213002000003020111102002090000                                                                            
34233078528000213002000002980111102002105000                                                                            
34233078528000213002000003060115102002171900                                                                            
34233078528000213002000003070115102002100000                                                                            
34233078528000213002000003144616102002000000fomos ao local de entrega dia 15/10 e não havia ninguém em casa             
34233078528000213002000003140116102002000000                                                                            
34233078528000213002000003150115102002132800                                                                            
34233078528000213002000003130115102002140500                                                                            
34233078528000213002000003120116102002121000                                                                            
34233078528000213002000003110116102002151500                                                                            
34233078528000213002000003170116102002134000                                                                            
34233078528000213002000003160116102002000000                                                                            
34233078528000213002000003080115102002000000                                                                            
34233078528000213002000003100117102002000000                                                                            
34233078528000213002000003090117102002000000                                                                            
34233078528000213002000003190117102002115800                                                                            
34233078528000213002000003180117102002000000                                                                            
34233078528000213002000003200117102002000000                                                                            
34233078528000213002000003220117102002143000                                                                            
34233078528000213002000003210117102002121500                                                                            
34233078528000213002000003230121102002000000                                                                            
34233078528000213002000003250121102002134600                                                                            
34233078528000213002000003240121102002000000                                                                            
34233078528000213002000003260121102002000000                                                                            
34233078528000213002000003281323102002151100                                                                            
34233078528000213002000003280124102002095000                                                                            
34233078528000213002000003271323102002151100                                                                            
34233078528000213002000003270124102002095000                                                                            
34233078528000213002000003310125102002080000                                                                            
34233078528000213002000003320123102002190500                                                                            
34233078528000213002000003360123102002000000                                                                            
34233078528000213002000003363924102002100000                                                                            
34233078528000213002000003364031102002110000                                                                            
34233078528000213002000003370123102002000000                                                                            
34233078528000213002000003373924102002100000                                                                            
34233078528000213002000003374031102002110000                                                                            
34233078528000213002000003333924102002100000                                                                            
34233078528000213002000003334031102002110000                                                                            
34233078528000213002000003330124102002000000                                                                            
34233078528000213002000003343924102002100000                                                                            
34233078528000213002000003344031102002110000                                                                            
34233078528000213002000003340124102002000000                                                                            
34233078528000213002000003353924102002100000                                                                            
34233078528000213002000003354031102002110000                                                                            
34233078528000213002000003350124102002000000                                                                            
34233078528000213002000003300121102002160500                                                                            
34233078528000213002000003380121102002000000                                                                            
34233078528000213002000003389921102002000000entregue só a nf 339                                                        
34233078528000213002000003390121102002000000                                                                            
34233078528000213002000003399921102002000000entregue só a nf 339                                                        
34233078528000213002000003410122102002085500                                                                            
34233078528000213002000003400122102002150000                                                                            
34233078528000213002000003420123102002000000                                                                            
34233078528000213002000003430122102002123000                                                                            
34233078528000213002000003450129102002182200                                                                            
34233078528000213002000003380125102002000000                                                                            
34233078528000213002000004020129102002091000                                                                            
34233078528000213002000004060129102002121000                                                                            
34233078528000213002000004030129102002084000                                                                            
34233078528000213002000003840130102002182000                                                                            
34233078528000213002000004040129102002000000                                                                            
34233078528000213002000004050129102002140000                                                                            
34233078528000213002000003900129102002145000                                                                            
34233078528000213002000003880129102002160000                                                                            
34233078528000213002000003860129102002110000                                                                            
34233078528000213002000003890129102002133800                                                                            
34233078528000213002000003870129102002134000                                                                            
34233078528000213002000004090129102002154000                                                                            
34233078528000213002000004070129102002161000                                                                            
34233078528000213002000003850129102002143000                                                                            
34233078528000213002000004080129102002153100                                                                            
34233078528000213002000003920130102002084000                                                                            
34233078528000213002000003960130102002115000                                                                            
34233078528000213002000003930105112002000000                                                                            
34233078528000213002000003950129102002000000                                                                            
34233078528000213002000003482029102002000000                                                                            
34233078528000213002000003480130102002164000                                                                            
34233078528000213002000003490128102002122000                                                                            
34233078528000213002000003500129102002104000                                                                            
34233078528000213002000003520129102002150500                                                                            
34233078528000213002000003510129102002094000                                                                            
34233078528000213002000003530129102002143500                                                                            
34233078528000213002000003550129102002155500                                                                            
34233078528000213002000003560129102002081500                                                                            
34233078528000213002000004130130102002000000                                                                            
34233078528000213002000004120101112002111000                                                                            
34233078528000213002000004110101112002092500                                                                            
34233078528000213002000004100101112002092700                                                                            
34233078528000213002000003570130102002091500                                                                            
34233078528000213002000003910130102002000000                                                                            
34233078528000213002000003670101112002174500                                                                            
34233078528000213002000003540130102002163000                                                                            
34233078528000213002000003720130102002111000                                                                            
34233078528000213002000003600130102002111500                                                                            
34233078528000213002000003660130102002123100                                                                            
34233078528000213002000003640130102002091000                                                                            
34233078528000213002000003740130102002101000                                                                            
34233078528000213002000003620130102002103600                                                                            
34233078528000213002000003590130102002145900                                                                            
34233078528000213002000003750101112002141500                                                                            
34233078528000213002000003780105112002000000                                                                            
34233078528000213002000003790131102002153000                                                                            
34233078528000213002000003800131102002000000                                                                            
34233078528000213002000003680101112002181000                                                                            
34233078528000213002000003810131102002122000                                                                            
34233078528000213002000003830131102002155200                                                                            
34233078528000213002000003700131102002000000                                                                            
34233078528000213002000003630131102002092800                                                                            
34233078528000213002000003710131102002102800                                                                            
34233078528000213002000003610131102002123500                                                                            
34233078528000213002000004140131102002142000                                                                            
34233078528000213002000003690131102002000000                                                                            
34233078528000213002000003650131102002131500                                                                            
34233078528000213002000003979931102002000000nosso veiculo ficou parado no posto fiscal de itatiaia e havera atraso      
34233078528000213002000003970131102002163500                                                                            
34233078528000213002000003949931102002000000nosso veiculo ficou parado no posto de itatiaia e haverá atraso na ent      
34233078528000213002000003940101112002000000                                                                            
34233078528000213002000003989931102002000000nosso veiculo ficou parado no posto fiscal de itatiaia e haverá atraso      
34233078528000213002000003980131102002000000                                                                            
34233078528000213002000004019931102002000000nosso veiculo ficou parado no posto fiscal de itatiaia e haverá atraso      
34233078528000213002000004010101112002000000                                                                            
34233078528000213002000004009931102002000000nosso veiculo ficou parado no posto fiscal e haverá atraso na entrega       
34233078528000213002000004000131102002000000                                                                            
34233078528000213002000003999931102002000000nosso veiculo ficou parado no posto fiscal de itatiaia e haverá atraso      
34233078528000213002000003990101112002000000                                                                            
34233078528000213002000003820101112002182500                                                                            
34233078528000213002000003760131102002152000                                                                            
34233078528000213002000003770131102002143500                                                                            
34233078528000213002000003580131102002000000                                                                            
34233078528000213002000003730101112002173000                                                                            
34233078528000213002000003470131102002000000                                                                            
34233078528000213002000004160113112002113300                                                                            
34233078528000213002000004152001112002000000                                                                            
34233078528000213002000004150104112002151000                                                                            
34233078528000213002000004210104112002000000                                                                            
34233078528000213002000004237707112002000000                                                                            
34233078528000213002000004230111112002000000                                                                            
34233078528000213002000004220111112002082000                                                                            
34233078528000213002000004240107112002000000                                                                            
34233078528000213002000004290107112002000000                                                                            
34233078528000213002000004300107112002172500                                                                            
34233078528000213002000004250107112002172500                                                                            
34233078528000213002000004260108112002000000                                                                            
34233078528000213002000004270108112002155500                                                                            
34233078528000213002000004280111112002000000                                                                            
34233078528000213002000004330114112002194000                                                                            
34233078528000213002000004310114112002000000                                                                            
34233078528000213002000004352020112002105700                                                                            
34233078528000213002000004340121112002000000                                                                            
34233078528000213002000004400119112002122200                                                                            
34233078528000213002000004380119112002122500                                                                            
34233078528000213002000004360119112002110000                                                                            
34233078528000213002000004410120112002082500                                                                            
34233078528000213002000004430121112002000000                                                                            
34233078528000213002000004540121112002172500                                                                            
34233078528000213002000004500121112002191500                                                                            
34233078528000213002000004510121112002172500                                                                            
34233078528000213002000004420121112002162500                                                                            
34233078528000213002000004450121112002162000                                                                            
34233078528000213002000004490121112002174000                                                                            
34233078528000213002000004460121112002185000                                                                            
34233078528000213002000004470121112002185500                                                                            
34233078528000213002000004480121112002161500                                                                            
34233078528000213002000004520121112002162200                                                                            
34233078528000213002000004550122112002000000                                                                            
34233078528000213002000004570122112002154500                                                                            
